{
  "_format": "hh-sol-artifact-1",
  "contractName": "Lines2",
  "sourceName": "contracts/libraries/Lines2.sol",
  "abi": [
    {
      "inputs": [],
      "name": "fortune_21",
      "outputs": [
        {
          "internalType": "string[2]",
          "name": "",
          "type": "string[2]"
        }
      ],
      "stateMutability": "pure",
      "type": "function"
    },
    {
      "inputs": [],
      "name": "fortune_22",
      "outputs": [
        {
          "internalType": "string[2]",
          "name": "",
          "type": "string[2]"
        }
      ],
      "stateMutability": "pure",
      "type": "function"
    },
    {
      "inputs": [],
      "name": "fortune_23",
      "outputs": [
        {
          "internalType": "string[2]",
          "name": "",
          "type": "string[2]"
        }
      ],
      "stateMutability": "pure",
      "type": "function"
    },
    {
      "inputs": [],
      "name": "fortune_24",
      "outputs": [
        {
          "internalType": "string[2]",
          "name": "",
          "type": "string[2]"
        }
      ],
      "stateMutability": "pure",
      "type": "function"
    },
    {
      "inputs": [],
      "name": "fortune_25",
      "outputs": [
        {
          "internalType": "string[2]",
          "name": "",
          "type": "string[2]"
        }
      ],
      "stateMutability": "pure",
      "type": "function"
    },
    {
      "inputs": [],
      "name": "fortune_26",
      "outputs": [
        {
          "internalType": "string[2]",
          "name": "",
          "type": "string[2]"
        }
      ],
      "stateMutability": "pure",
      "type": "function"
    },
    {
      "inputs": [],
      "name": "fortune_27",
      "outputs": [
        {
          "internalType": "string[2]",
          "name": "",
          "type": "string[2]"
        }
      ],
      "stateMutability": "pure",
      "type": "function"
    },
    {
      "inputs": [],
      "name": "fortune_28",
      "outputs": [
        {
          "internalType": "string[2]",
          "name": "",
          "type": "string[2]"
        }
      ],
      "stateMutability": "pure",
      "type": "function"
    },
    {
      "inputs": [],
      "name": "fortune_29",
      "outputs": [
        {
          "internalType": "string[2]",
          "name": "",
          "type": "string[2]"
        }
      ],
      "stateMutability": "pure",
      "type": "function"
    },
    {
      "inputs": [],
      "name": "fortune_30",
      "outputs": [
        {
          "internalType": "string[2]",
          "name": "",
          "type": "string[2]"
        }
      ],
      "stateMutability": "pure",
      "type": "function"
    },
    {
      "inputs": [],
      "name": "fortune_31",
      "outputs": [
        {
          "internalType": "string[2]",
          "name": "",
          "type": "string[2]"
        }
      ],
      "stateMutability": "pure",
      "type": "function"
    },
    {
      "inputs": [],
      "name": "fortune_32",
      "outputs": [
        {
          "internalType": "string[2]",
          "name": "",
          "type": "string[2]"
        }
      ],
      "stateMutability": "pure",
      "type": "function"
    },
    {
      "inputs": [],
      "name": "fortune_33",
      "outputs": [
        {
          "internalType": "string[2]",
          "name": "",
          "type": "string[2]"
        }
      ],
      "stateMutability": "pure",
      "type": "function"
    },
    {
      "inputs": [],
      "name": "fortune_34",
      "outputs": [
        {
          "internalType": "string[2]",
          "name": "",
          "type": "string[2]"
        }
      ],
      "stateMutability": "pure",
      "type": "function"
    },
    {
      "inputs": [],
      "name": "fortune_35",
      "outputs": [
        {
          "internalType": "string[2]",
          "name": "",
          "type": "string[2]"
        }
      ],
      "stateMutability": "pure",
      "type": "function"
    },
    {
      "inputs": [],
      "name": "fortune_36",
      "outputs": [
        {
          "internalType": "string[2]",
          "name": "",
          "type": "string[2]"
        }
      ],
      "stateMutability": "pure",
      "type": "function"
    },
    {
      "inputs": [],
      "name": "fortune_37",
      "outputs": [
        {
          "internalType": "string[2]",
          "name": "",
          "type": "string[2]"
        }
      ],
      "stateMutability": "pure",
      "type": "function"
    },
    {
      "inputs": [],
      "name": "fortune_38",
      "outputs": [
        {
          "internalType": "string[2]",
          "name": "",
          "type": "string[2]"
        }
      ],
      "stateMutability": "pure",
      "type": "function"
    },
    {
      "inputs": [],
      "name": "fortune_39",
      "outputs": [
        {
          "internalType": "string[2]",
          "name": "",
          "type": "string[2]"
        }
      ],
      "stateMutability": "pure",
      "type": "function"
    },
    {
      "inputs": [],
      "name": "fortune_40",
      "outputs": [
        {
          "internalType": "string[2]",
          "name": "",
          "type": "string[2]"
        }
      ],
      "stateMutability": "pure",
      "type": "function"
    },
    {
      "inputs": [
        {
          "internalType": "uint256",
          "name": "rand",
          "type": "uint256"
        }
      ],
      "name": "getFortuneLines",
      "outputs": [
        {
          "internalType": "string[2]",
          "name": "",
          "type": "string[2]"
        }
      ],
      "stateMutability": "pure",
      "type": "function"
    }
  ],
  "bytecode": "0x6112e3610053600b82828239805160001a607314610046577f4e487b7100000000000000000000000000000000000000000000000000000000600052600060045260246000fd5b30600052607381538281f3fe73000000000000000000000000000000000000000030146080604052600436106101415760003560e01c8063a21427b4116100c2578063d623840411610086578063d62384041461031a578063e86cfeb514610338578063ec9b5fd514610356578063f720326714610374578063fb88935914610392578063ff8f16d3146103b057610141565b8063a21427b414610284578063a282a995146102a2578063b6163b24146102c0578063bb6de950146102de578063c9d84ad7146102fc57610141565b80635b7b2739116101095780635b7b2739146101dc578063653b33e2146101fa5780637b68b8d51461021857806392d5398314610236578063a1c4e0f31461026657610141565b80631cfc6a7f146101465780632dc06ac91461016457806338a7460c146101825780634430a71f146101a057806353640c05146101be575b600080fd5b61014e6103ce565b60405161015b91906111dd565b60405180910390f35b61016c61045a565b60405161017991906111dd565b60405180910390f35b61018a6104e6565b60405161019791906111dd565b60405180910390f35b6101a8610572565b6040516101b591906111dd565b60405180910390f35b6101c66105fe565b6040516101d391906111dd565b60405180910390f35b6101e461068a565b6040516101f191906111dd565b60405180910390f35b610202610716565b60405161020f91906111dd565b60405180910390f35b6102206107a2565b60405161022d91906111dd565b60405180910390f35b610250600480360381019061024b91906110f2565b61082e565b60405161025d91906111dd565b60405180910390f35b61026e610a26565b60405161027b91906111dd565b60405180910390f35b61028c610ab2565b60405161029991906111dd565b60405180910390f35b6102aa610b3e565b6040516102b791906111dd565b60405180910390f35b6102c8610bca565b6040516102d591906111dd565b60405180910390f35b6102e6610c56565b6040516102f391906111dd565b60405180910390f35b610304610ce2565b60405161031191906111dd565b60405180910390f35b610322610d6e565b60405161032f91906111dd565b60405180910390f35b610340610dfa565b60405161034d91906111dd565b60405180910390f35b61035e610e86565b60405161036b91906111dd565b60405180910390f35b61037c610f12565b60405161038991906111dd565b60405180910390f35b61039a610f9e565b6040516103a791906111dd565b60405180910390f35b6103b861102a565b6040516103c591906111dd565b60405180910390f35b6103d66110b6565b60405180604001604052806040518060400160405280601281526020017f4974206973206e6f7420796f7572206a6f62000000000000000000000000000081525081526020016040518060400160405280600e81526020017f746f206669782070656f706c652e000000000000000000000000000000000000815250815250905090565b6104626110b6565b60405180604001604052806040518060400160405280600881526020017f596f75206172652000000000000000000000000000000000000000000000000081525081526020016040518060400160405280600d81526020017f676f6e6e61206d616b6520697400000000000000000000000000000000000000815250815250905090565b6104ee6110b6565b60405180604001604052806040518060400160405280600e81526020017f547275737420746865207761697400000000000000000000000000000000000081525081526020016040518060400160405280601281526020017f456e6a6f79206e6f74206b6e6f77696e672e0000000000000000000000000000815250815250905090565b61057a6110b6565b60405180604001604052806040518060400160405280600d81526020017f456e74657220756e6b6e6f776e0000000000000000000000000000000000000081525081526020016040518060400160405280600a81526020017f7465727269746f72792e00000000000000000000000000000000000000000000815250815250905090565b6106066110b6565b60405180604001604052806040518060400160405280600b81526020017f4769766520416c7068612000000000000000000000000000000000000000000081525081526020016040518060400160405280600a81526020017f47657420416c7068612000000000000000000000000000000000000000000000815250815250905090565b6106926110b6565b60405180604001604052806040518060400160405280600b81526020017f54616b65206e6f20666f7200000000000000000000000000000000000000000081525081526020016040518060400160405280600a81526020017f616e20616e737765722e00000000000000000000000000000000000000000000815250815250905090565b61071e6110b6565b60405180604001604052806040518060400160405280600e81526020017f54686520666c697070656e696e6700000000000000000000000000000000000081525081526020016040518060400160405280600981526020017f697320636f6d696e670000000000000000000000000000000000000000000000815250815250905090565b6107aa6110b6565b60405180604001604052806040518060400160405280600b81526020017f5468652073696c656e636500000000000000000000000000000000000000000081525081526020016040518060400160405280600f81526020017f737065616b7320766f6c756d65732e0000000000000000000000000000000000815250815250905090565b6108366110b6565b601582141561084e57610847610f9e565b9050610a21565b60168214156108665761085f610716565b9050610a21565b601782141561087e57610877610c56565b9050610a21565b60188214156108965761088f610e86565b9050610a21565b60198214156108ae576108a761045a565b9050610a21565b601a8214156108c6576108bf610bca565b9050610a21565b601b8214156108de576108d76105fe565b9050610a21565b601c8214156108f6576108ef610dfa565b9050610a21565b601d82141561090e57610907610ce2565b9050610a21565b601e8214156109265761091f6104e6565b9050610a21565b601f82141561093e576109376103ce565b9050610a21565b60208214156109565761094f610a26565b9050610a21565b602182141561096e57610967610ab2565b9050610a21565b60228214156109865761097f610d6e565b9050610a21565b602382141561099e5761099761102a565b9050610a21565b60248214156109b6576109af61068a565b9050610a21565b60258214156109ce576109c7610f12565b9050610a21565b60268214156109e6576109df610572565b9050610a21565b60278214156109fe576109f7610b3e565b9050610a21565b6028821415610a1657610a0f6107a2565b9050610a21565b610a1e610f9e565b90505b919050565b610a2e6110b6565b60405180604001604052806040518060400160405280600c81526020017f4d616b652070656f706c6520000000000000000000000000000000000000000081525081526020016040518060400160405280600881526020017f73656520796f752e000000000000000000000000000000000000000000000000815250815250905090565b610aba6110b6565b60405180604001604052806040518060400160405280600881526020017f54617020696e746f00000000000000000000000000000000000000000000000081525081526020016040518060400160405280600b81526020017f796f7572206d616769632e000000000000000000000000000000000000000000815250815250905090565b610b466110b6565b60405180604001604052806040518060400160405280601181526020017f412077696e6e657220646f6573206e6f7400000000000000000000000000000081525081526020016040518060400160405280601281526020017f71756974206f6e207468656d73656c7665730000000000000000000000000000815250815250905090565b610bd26110b6565b60405180604001604052806040518060400160405280600881526020017f427579206d6f726500000000000000000000000000000000000000000000000081525081526020016040518060400160405280600481526020017f4e46547300000000000000000000000000000000000000000000000000000000815250815250905090565b610c5e6110b6565b60405180604001604052806040518060400160405280600a81526020017f77656e206c616d626f3f0000000000000000000000000000000000000000000081525081526020016040518060400160405280600481526020017f736f6f6e00000000000000000000000000000000000000000000000000000000815250815250905090565b610cea6110b6565b60405180604001604052806040518060400160405280601281526020017f5265636f676e697a6520796f757273656c66000000000000000000000000000081525081526020016040518060400160405280600b81526020017f20696e206f74686572732e000000000000000000000000000000000000000000815250815250905090565b610d766110b6565b60405180604001604052806040518060400160405280601281526020017f45766572797468696e672074686174206973000000000000000000000000000081525081526020016040518060400160405280601281526020017f776173206669727374206120647265616d2e0000000000000000000000000000815250815250905090565b610e026110b6565b60405180604001604052806040518060400160405280600e81526020017f546865206675747572652069732000000000000000000000000000000000000081525081526020016040518060400160405280600b81526020017f6d756c74692d636861696e000000000000000000000000000000000000000000815250815250905090565b610e8e6110b6565b60405180604001604052806040518060400160405280600f81526020017f49207365652041697264726f707320000000000000000000000000000000000081525081526020016040518060400160405280600e81526020017f696e20796f757220667574757265000000000000000000000000000000000000815250815250905090565b610f1a6110b6565b60405180604001604052806040518060400160405280600e81526020017f546f20626520666f756e64202d2000000000000000000000000000000000000081525081526020016040518060400160405280600c81526020017f73746f7020686964696e672e0000000000000000000000000000000000000000815250815250905090565b610fa66110b6565b60405180604001604052806040518060400160405280600481526020017f417274200000000000000000000000000000000000000000000000000000000081525081526020016040518060400160405280600a81526020017f6973207574696c69747900000000000000000000000000000000000000000000815250815250905090565b6110326110b6565b60405180604001604052806040518060400160405280600e81526020017f4b65657020796f7572206e65787400000000000000000000000000000000000081525081526020016040518060400160405280600b81526020017f6d6f76652071756965742e000000000000000000000000000000000000000000815250815250905090565b60405180604001604052806002905b60608152602001906001900390816110c55790505090565b6000813590506110ec81611296565b92915050565b60006020828403121561110457600080fd5b6000611112848285016110dd565b91505092915050565b600061112783836111a4565b905092915050565b600061113a82611209565b611144818561122c565b935083602082028501611156856111ff565b8060005b858110156111925784840389528151611173858261111b565b945061117e8361121f565b925060208a0199505060018101905061115a565b50829750879550505050505092915050565b60006111af82611214565b6111b98185611237565b93506111c9818560208601611252565b6111d281611285565b840191505092915050565b600060208201905081810360008301526111f7818461112f565b905092915050565b6000819050919050565b600060029050919050565b600081519050919050565b6000602082019050919050565b600081905092915050565b600082825260208201905092915050565b6000819050919050565b60005b83811015611270578082015181840152602081019050611255565b8381111561127f576000848401525b50505050565b6000601f19601f8301169050919050565b61129f81611248565b81146112aa57600080fd5b5056fea26469706673582212204d1728c6cdc007f7962c2cb35ed18575aacbf8287f3c61a1b17c1343c2c5812a64736f6c63430008020033",
  "linkReferences": {},
  "deployedLinkReferences": {}
}