{
  "_format": "hh-sol-artifact-1",
  "contractName": "CookyDescriptor",
  "sourceName": "contracts/CookyDescriptor.sol",
  "abi": [
    {
      "inputs": [],
      "name": "MAX",
      "outputs": [
        {
          "internalType": "uint256",
          "name": "",
          "type": "uint256"
        }
      ],
      "stateMutability": "view",
      "type": "function"
    },
    {
      "inputs": [],
      "name": "OFFSET",
      "outputs": [
        {
          "internalType": "uint256",
          "name": "",
          "type": "uint256"
        }
      ],
      "stateMutability": "view",
      "type": "function"
    },
    {
      "inputs": [],
      "name": "SCALE",
      "outputs": [
        {
          "internalType": "uint256",
          "name": "",
          "type": "uint256"
        }
      ],
      "stateMutability": "view",
      "type": "function"
    },
    {
      "inputs": [],
      "name": "SCALIFIER",
      "outputs": [
        {
          "internalType": "uint256",
          "name": "",
          "type": "uint256"
        }
      ],
      "stateMutability": "view",
      "type": "function"
    },
    {
      "inputs": [
        {
          "internalType": "address",
          "name": "_to",
          "type": "address"
        },
        {
          "internalType": "uint256",
          "name": "tokenId",
          "type": "uint256"
        },
        {
          "internalType": "uint256",
          "name": "bgId",
          "type": "uint256"
        }
      ],
      "name": "_buildFortuneCooky",
      "outputs": [
        {
          "internalType": "string",
          "name": "",
          "type": "string"
        }
      ],
      "stateMutability": "view",
      "type": "function"
    },
    {
      "inputs": [
        {
          "internalType": "address",
          "name": "_to",
          "type": "address"
        },
        {
          "internalType": "uint256",
          "name": "tokenId",
          "type": "uint256"
        }
      ],
      "name": "_randomish",
      "outputs": [
        {
          "internalType": "string[2]",
          "name": "",
          "type": "string[2]"
        }
      ],
      "stateMutability": "view",
      "type": "function"
    }
  ],
  "bytecode": "0x60806040526040518061014001604052806040518060400160405280600781526020017f233934373066660000000000000000000000000000000000000000000000000081525081526020016040518060400160405280600781526020017f233139316634320000000000000000000000000000000000000000000000000081525081526020016040518060400160405280600781526020017f236161353761390000000000000000000000000000000000000000000000000081525081526020016040518060400160405280600781526020017f236266326261390000000000000000000000000000000000000000000000000081525081526020016040518060400160405280600781526020017f233332333333340000000000000000000000000000000000000000000000000081525081526020016040518060400160405280600781526020017f233633353439340000000000000000000000000000000000000000000000000081525081526020016040518060400160405280600781526020017f233562356235630000000000000000000000000000000000000000000000000081525081526020016040518060400160405280600781526020017f236234383762340000000000000000000000000000000000000000000000000081525081526020016040518060400160405280600781526020017f233030344130360000000000000000000000000000000000000000000000000081525081526020016040518060400160405280600781526020017f2336333633363300000000000000000000000000000000000000000000000000815250815250600090600a6200026e92919062000759565b506040518061014001604052806040518060400160405280600781526020017f236131363166340000000000000000000000000000000000000000000000000081525081526020016040518060400160405280600781526020017f233862643363620000000000000000000000000000000000000000000000000081525081526020016040518060400160405280600781526020017f233766613166330000000000000000000000000000000000000000000000000081525081526020016040518060400160405280600781526020017f233034636364380000000000000000000000000000000000000000000000000081525081526020016040518060400160405280600781526020017f233963393463620000000000000000000000000000000000000000000000000081525081526020016040518060400160405280600781526020017f233330393762300000000000000000000000000000000000000000000000000081525081526020016040518060400160405280600781526020017f233934306139300000000000000000000000000000000000000000000000000081525081526020016040518060400160405280600781526020017f233938623661640000000000000000000000000000000000000000000000000081525081526020016040518060400160405280600781526020017f233631453839420000000000000000000000000000000000000000000000000081525081526020016040518060400160405280600781526020017f2343464346434600000000000000000000000000000000000000000000000000815250815250600190600a620004d992919062000759565b506040518061014001604052806040518060400160405280600781526020017f236564356664630000000000000000000000000000000000000000000000000081525081526020016040518060400160405280600781526020017f233566376566360000000000000000000000000000000000000000000000000081525081526020016040518060400160405280600781526020017f236535393937340000000000000000000000000000000000000000000000000081525081526020016040518060400160405280600781526020017f233362616466360000000000000000000000000000000000000000000000000081525081526020016040518060400160405280600781526020017f236130613163640000000000000000000000000000000000000000000000000081525081526020016040518060400160405280600781526020017f233034393339330000000000000000000000000000000000000000000000000081525081526020016040518060400160405280600781526020017f233034633863630000000000000000000000000000000000000000000000000081525081526020016040518060400160405280600781526020017f236263623562630000000000000000000000000000000000000000000000000081525081526020016040518060400160405280600781526020017f233132423535460000000000000000000000000000000000000000000000000081525081526020016040518060400160405280600781526020017f2341424142414200000000000000000000000000000000000000000000000000815250815250600290600a6200074492919062000759565b503480156200075257600080fd5b5062000943565b828054828255906000526020600020908101928215620007ad579160200282015b82811115620007ac5782518290805190602001906200079b929190620007c0565b50916020019190600101906200077a565b5b509050620007bc919062000851565b5090565b828054620007ce90620008de565b90600052602060002090601f016020900481019282620007f257600085556200083e565b82601f106200080d57805160ff19168380011785556200083e565b828001600101855582156200083e579182015b828111156200083d57825182559160200191906001019062000820565b5b5090506200084d919062000879565b5090565b5b808211156200087557600081816200086b919062000898565b5060010162000852565b5090565b5b80821115620008945760008160009055506001016200087a565b5090565b508054620008a690620008de565b6000825580601f10620008ba5750620008db565b601f016020900490600052602060002090810190620008da919062000879565b5b50565b60006002820490506001821680620008f757607f821691505b602082108114156200090e576200090d62000914565b5b50919050565b7f4e487b7100000000000000000000000000000000000000000000000000000000600052602260045260246000fd5b6145dc80620009536000396000f3fe608060405234801561001057600080fd5b50600436106100625760003560e01c80637be53b9f14610067578063a28f384914610097578063ce665dd8146100c7578063d49d5181146100e5578063eced552614610103578063f4ab1a9314610121575b600080fd5b610081600480360381019061007c9190610a9b565b61013f565b60405161008e9190611431565b60405180910390f35b6100b160048036038101906100ac9190610ad7565b610365565b6040516100be9190611453565b60405180910390f35b6100cf6106fe565b6040516100dc9190611490565b60405180910390f35b6100ed610703565b6040516100fa9190611490565b60405180910390f35b61010b610714565b6040516101189190611490565b60405180910390f35b61012961071a565b6040516101369190611490565b60405180910390f35b610147610967565b600043428561015586610738565b60405160200161016894939291906111be565b6040516020818303038152906040528051906020012060001c90506000603c826101929190611790565b9050602981106102315773__$311a33a4f51c500c1d2e264737fc097d09$__6392d53983826040518263ffffffff1660e01b81526004016101d39190611475565b60006040518083038186803b1580156101eb57600080fd5b505af41580156101ff573d6000803e3d6000fd5b505050506040513d6000823e3d601f19601f820116820180604052508101906102289190610b26565b9250505061035f565b601581106102ce5773__$77ea751b95ae1ac05badc06e400d40c7e5$__6392d53983826040518263ffffffff1660e01b81526004016102709190611475565b60006040518083038186803b15801561028857600080fd5b505af415801561029c573d6000803e3d6000fd5b505050506040513d6000823e3d601f19601f820116820180604052508101906102c59190610b26565b9250505061035f565b73__$0fe5f6d2ef39da8ee0eae391d881aaf10c$__6392d53983826040518263ffffffff1660e01b81526004016103059190611475565b60006040518083038186803b15801561031d57600080fd5b505af4158015610331573d6000803e3d6000fd5b505050506040513d6000823e3d601f19601f8201168201806040525081019061035a9190610b26565b925050505b92915050565b60606000600a836103769190611790565b90506000600a6064856103899190611790565b61039391906115e2565b9050600060646103e8866103a79190611790565b6103b191906115e2565b905060006103bf888861013f565b9050600061044982600060028110610400577f4e487b7100000000000000000000000000000000000000000000000000000000600052603260045260246000fd5b60200201518360016002811061043f577f4e487b7100000000000000000000000000000000000000000000000000000000600052603260045260246000fd5b60200201516108e5565b90506000610455610911565b905060006106c860008881548110610496577f4e487b7100000000000000000000000000000000000000000000000000000000600052603260045260246000fd5b9060005260206000200180546104ab906116b6565b80601f01602080910402602001604051908101604052809291908181526020018280546104d7906116b6565b80156105245780601f106104f957610100808354040283529160200191610524565b820191906000526020600020905b81548152906001019060200180831161050757829003601f168201915b505050505060018881548110610563577f4e487b7100000000000000000000000000000000000000000000000000000000600052603260045260246000fd5b906000526020600020018054610578906116b6565b80601f01602080910402602001604051908101604052809291908181526020018280546105a4906116b6565b80156105f15780601f106105c6576101008083540402835291602001916105f1565b820191906000526020600020905b8154815290600101906020018083116105d457829003601f168201915b505050505060028881548110610630577f4e487b7100000000000000000000000000000000000000000000000000000000600052603260045260246000fd5b906000526020600020018054610645906116b6565b80601f0160208091040260200160405190810160405280929190818152602001828054610671906116b6565b80156106be5780601f10610693576101008083540402835291602001916106be565b820191906000526020600020905b8154815290600101906020018083116106a157829003601f168201915b5050505050610936565b90508082846040516020016106df9392919061131a565b6040516020818303038152906040529750505050505050509392505050565b606481565b600160006107119190611613565b81565b6103e781565b6103e76001600061072b9190611613565b61073591906115e2565b81565b60606000821415610780576040518060400160405280600181526020017f300000000000000000000000000000000000000000000000000000000000000081525090506108e0565b600082905060005b600082146107b257808061079b90611719565b915050600a826107ab91906115e2565b9150610788565b60008167ffffffffffffffff8111156107f4577f4e487b7100000000000000000000000000000000000000000000000000000000600052604160045260246000fd5b6040519080825280601f01601f1916602001820160405280156108265781602001600182028036833780820191505090505b5090505b600085146108d95760018261083f9190611613565b9150600a8561084e9190611790565b603061085a919061158c565b60f81b818381518110610896577f4e487b7100000000000000000000000000000000000000000000000000000000600052603260045260246000fd5b60200101907effffffffffffffffffffffffffffffffffffffffffffffffffffffffffffff1916908160001a905350600a856108d291906115e2565b945061082a565b8093505050505b919050565b606082826040516020016108fa9291906113e1565b604051602081830303815290604052905092915050565b606060405160200161092290611213565b604051602081830303815290604052905090565b60608184848460405160200161094f9493929190611361565b60405160208183030381529060405290509392505050565b60405180604001604052806002905b60608152602001906001900390816109765790505090565b60006109a161099c846114d0565b6114ab565b9050808260005b858110156109d857815185016109be8882610a5c565b8452602084019350602083019250506001810190506109a8565b5050509392505050565b60006109f56109f0846114f6565b6114ab565b905082815260208101848484011115610a0d57600080fd5b610a18848285611683565b509392505050565b600081359050610a2f81614578565b92915050565b600082601f830112610a4657600080fd5b6002610a5384828561098e565b91505092915050565b600082601f830112610a6d57600080fd5b8151610a7d8482602086016109e2565b91505092915050565b600081359050610a958161458f565b92915050565b60008060408385031215610aae57600080fd5b6000610abc85828601610a20565b9250506020610acd85828601610a86565b9150509250929050565b600080600060608486031215610aec57600080fd5b6000610afa86828701610a20565b9350506020610b0b86828701610a86565b9250506040610b1c86828701610a86565b9150509250925092565b600060208284031215610b3857600080fd5b600082015167ffffffffffffffff811115610b5257600080fd5b610b5e84828501610a35565b91505092915050565b6000610b738383610c07565b905092915050565b610b8c610b8782611647565b611762565b82525050565b6000610b9d82611531565b610ba78185611554565b935083602082028501610bb985611527565b8060005b85811015610bf55784840389528151610bd68582610b67565b9450610be183611547565b925060208a01995050600181019050610bbd565b50829750879550505050505092915050565b6000610c128261153c565b610c1c818561155f565b9350610c2c818560208601611683565b610c358161187d565b840191505092915050565b6000610c4b8261153c565b610c558185611570565b9350610c65818560208601611683565b610c6e8161187d565b840191505092915050565b6000610c848261153c565b610c8e8185611581565b9350610c9e818560208601611683565b80840191505092915050565b6000610cb861019583611581565b9150610cc38261189b565b61019582019050919050565b6000610cdc600c83611581565b9150610ce782611a91565b600c82019050919050565b6000610cff607883611581565b9150610d0a82611aba565b607882019050919050565b6000610d22604883611581565b9150610d2d82611b55565b604882019050919050565b6000610d45606883611581565b9150610d5082611bca565b606882019050919050565b6000610d68606083611581565b9150610d7382611c65565b606082019050919050565b6000610d8c61019683611581565b9150610d9782611cda565b61019682019050919050565b6000610db0602983611581565b9150610dbb82611ed0565b602982019050919050565b6000610dd3604883611581565b9150610dde82611f1f565b604882019050919050565b6000610df76101a083611581565b9150610e0282611f94565b6101a082019050919050565b6000610e1b604683611581565b9150610e268261218a565b604682019050919050565b6000610e3f61043c83611581565b9150610e4a826121ff565b61043c82019050919050565b6000610e63605c83611581565b9150610e6e82612728565b605c82019050919050565b6000610e8761010383611581565b9150610e928261279d565b61010382019050919050565b6000610eab605083611581565b9150610eb6826128f7565b605082019050919050565b6000610ece607883611581565b9150610ed98261296c565b607882019050919050565b6000610ef26104df83611581565b9150610efd82612a07565b6104df82019050919050565b6000610f16600783611581565b9150610f2182612ff3565b600782019050919050565b6000610f39604883611581565b9150610f448261301c565b604882019050919050565b6000610f5c604883611581565b9150610f6782613091565b604882019050919050565b6000610f7f60ba83611581565b9150610f8a82613106565b60ba82019050919050565b6000610fa361012883611581565b9150610fae826131ed565b61012882019050919050565b6000610fc7607683611581565b9150610fd28261336e565b607682019050919050565b6000610fea609183611581565b9150610ff582613409565b609182019050919050565b600061100d604883611581565b9150611018826134ca565b604882019050919050565b6000611030604683611581565b915061103b8261353f565b604682019050919050565b6000611053604883611581565b915061105e826135b4565b604882019050919050565b600061107761013583611581565b915061108282613629565b61013582019050919050565b600061109c61046483611581565b91506110a7826137aa565b61046482019050919050565b60006110c060b083611581565b91506110cb82613d21565b60b082019050919050565b60006110e461013183611581565b91506110ef82613e08565b61013182019050919050565b6000611108604883611581565b915061111382613f89565b604882019050919050565b600061112b602383611581565b915061113682613ffe565b602382019050919050565b600061114e600683611581565b91506111598261404d565b600682019050919050565b600061117261041083611581565b915061117d82614076565b61041082019050919050565b61119281611679565b82525050565b6111a181611679565b82525050565b6111b86111b382611679565b611786565b82525050565b60006111c982610ccf565b91506111d582876111a7565b6020820191506111e582866111a7565b6020820191506111f58285610b7b565b6014820191506112058284610c79565b915081905095945050505050565b600061121e82610ee4565b9150611229826110b3565b915061123482611164565b915061123f82610e79565b915061124a82610dc6565b9150611255826110fb565b915061126082610d7e565b915061126b82610ec1565b915061127682611069565b915061128182610e31565b915061128c82610f2c565b915061129782610caa565b91506112a282611046565b91506112ad82610f4f565b91506112b882610cf2565b91506112c382610d5b565b91506112ce82610de9565b91506112d982611000565b91506112e4826110d6565b91506112ef82610d38565b91506112fa82610d15565b915061130582610e9e565b91506113108261108e565b9150819050919050565b600061132582610f95565b91506113318286610c79565b915061133d8285610c79565b91506113498284610c79565b915061135482611141565b9150819050949350505050565b600061136c82610fdd565b91506113788287610c79565b915061138382610e56565b915061138f8286610c79565b915061139a82610da3565b91506113a68285610c79565b91506113b182610fba565b91506113bc8261111e565b91506113c88284610c79565b91506113d382610f72565b915081905095945050505050565b60006113ec82611023565b91506113f88285610c79565b915061140382610f09565b915061140e82610e0e565b915061141a8284610c79565b915061142582610f09565b91508190509392505050565b6000602082019050818103600083015261144b8184610b92565b905092915050565b6000602082019050818103600083015261146d8184610c40565b905092915050565b600060208201905061148a6000830184611198565b92915050565b60006020820190506114a56000830184611189565b92915050565b60006114b56114c6565b90506114c182826116e8565b919050565b6000604051905090565b600067ffffffffffffffff8211156114eb576114ea61184e565b5b602082029050919050565b600067ffffffffffffffff8211156115115761151061184e565b5b61151a8261187d565b9050602081019050919050565b6000819050919050565b600060029050919050565b600081519050919050565b6000602082019050919050565b600081905092915050565b600082825260208201905092915050565b600082825260208201905092915050565b600081905092915050565b600061159782611679565b91506115a283611679565b9250827fffffffffffffffffffffffffffffffffffffffffffffffffffffffffffffffff038211156115d7576115d66117c1565b5b828201905092915050565b60006115ed82611679565b91506115f883611679565b925082611608576116076117f0565b5b828204905092915050565b600061161e82611679565b915061162983611679565b92508282101561163c5761163b6117c1565b5b828203905092915050565b600061165282611659565b9050919050565b600073ffffffffffffffffffffffffffffffffffffffff82169050919050565b6000819050919050565b60005b838110156116a1578082015181840152602081019050611686565b838111156116b0576000848401525b50505050565b600060028204905060018216806116ce57607f821691505b602082108114156116e2576116e161181f565b5b50919050565b6116f18261187d565b810181811067ffffffffffffffff821117156117105761170f61184e565b5b80604052505050565b600061172482611679565b91507fffffffffffffffffffffffffffffffffffffffffffffffffffffffffffffffff821415611757576117566117c1565b5b600182019050919050565b600061176d82611774565b9050919050565b600061177f8261188e565b9050919050565b6000819050919050565b600061179b82611679565b91506117a683611679565b9250826117b6576117b56117f0565b5b828206905092915050565b7f4e487b7100000000000000000000000000000000000000000000000000000000600052601160045260246000fd5b7f4e487b7100000000000000000000000000000000000000000000000000000000600052601260045260246000fd5b7f4e487b7100000000000000000000000000000000000000000000000000000000600052602260045260246000fd5b7f4e487b7100000000000000000000000000000000000000000000000000000000600052604160045260246000fd5b6000601f19601f8301169050919050565b60008160601b9050919050565b7f3c70617468207374796c653d2266696c6c3a236435376232393b207374726f6b60008201527f653a6e6f6e653b2220643d224d32393320313939433238392e3238322032303460208201527f2e313537203238332e353734203230362e383133203237392e3933382032313160408201527f2e343935433237352e333835203231372e333537203237372e3038352032323860608201527f2e37303220323637203232392e363737433235392e373631203233302e33373860808201527f203235332e343135203232322e3730322032343820323139433235322e31363560a08201527f203233322e313536203236332e353432203234352e363435203237322e34323860c08201527f20323536433237342e383639203235382e383434203238302e3032392032363560e08201527f2e383435203238342e353831203236342e323838433238382e353639203236326101008201527f2e393233203238392e303034203235332e3437203238392e35363220323530436101208201527f3239312e353039203233372e383739203239322e363935203232352e323534206101408201527f3239332e30313520323133433239332e313337203230382e33203239342e38366101608201527f38203230332e34363220323933203139397a222f3e000000000000000000000061018082015250565b7f4e414e59555f415448454e410000000000000000000000000000000000000000600082015250565b7f3c70617468207374796c653d2266696c6c3a236537633038663b207374726f6b60008201527f653a6e6f6e653b2220643d224d323930203230324c323931203230334c32393060208201527f203230324d313031203230334c313032203230344c313031203230334d31303260408201527f203230354c313033203230364c313032203230357a222f3e0000000000000000606082015250565b7f3c70617468207374796c653d2266696c6c3a236435376232393b207374726f6b60008201527f653a6e6f6e653b2220643d224d323437203231384c323438203231394c32343760208201527f203231387a222f3e000000000000000000000000000000000000000000000000604082015250565b7f3c70617468207374796c653d2266696c6c3a236537633038663b207374726f6b60008201527f653a6e6f6e653b2220643d224d313238203231374c313239203231384c31323860208201527f203231374d313332203231384c313332203231394c313335203231394c31333260408201527f203231387a222f3e000000000000000000000000000000000000000000000000606082015250565b7f3c70617468207374796c653d2266696c6c3a236632613533333b207374726f6b60008201527f653a6e6f6e653b2220643d224d323838203230354c323839203230364c32383860208201527f203230354d323837203230364c323838203230374c323837203230367a222f3e604082015250565b7f3c70617468207374796c653d2266696c6c3a236537646163653b207374726f6b60008201527f653a6e6f6e653b2220643d224d3834203136384338382e35383637203137392e60208201527f3031372039342e33343939203139372e303032203130322e393636203230352e60408201527f333937433130352e363736203230382e303338203131302e373138203230372e60608201527f34393320313134203230392e353231433134342e323134203232382e3138352060808201527f3138372e303635203231382e35333820323231203231372e303339433233362e60a08201527f303731203231362e333734203235312e303139203231332e393439203236362060c08201527f3231322e313535433237332e313335203231312e333031203238322e3336362060e08201527f3231312e303132203238372e383136203230352e373836433330302e343438206101008201527f3139332e363732203239332e393935203136382e3836352032393620313533436101208201527f3238332e383638203135342e373835203237322e323837203135392e333935206101408201527f3236302e303135203136302e383535433230312e343033203136372e383238206101608201527f3134322e38353920313638203834203136387a222f3e0000000000000000000061018082015250565b7f222f3e3c73746f70206f66667365743d22302e363622207374796c653d22737460008201527f6f702d636f6c6f723a0000000000000000000000000000000000000000000000602082015250565b7f3c70617468207374796c653d2266696c6c3a236632613533333b207374726f6b60008201527f653a6e6f6e653b2220643d224d323931203135334c323932203135344c32393160208201527f203135337a222f3e000000000000000000000000000000000000000000000000604082015250565b7f3c70617468207374796c653d2266696c6c3a236537633038663b207374726f6b60008201527f653a6e6f6e653b2220643d224d313037203230374c313037203230384c31313060208201527f203230384c313037203230374d313133203230384c313134203230394c31313360408201527f203230384d323834203230384c323835203230394c323834203230384d31313460608201527f203230394c313135203231304c313134203230394d323832203230394c32383360808201527f203231304c323832203230394d323736203231304c323736203231314c32373960a08201527f203231314c323736203231304d3237312e363637203231312e3333334c32373260c08201527f2e333333203231312e3636374c3237312e363637203231312e3333334d32363360e08201527f2e363637203231322e3333334c3236342e333333203231322e3636374c3236336101008201527f2e363637203231322e3333334d323533203231334c323533203231344c3235386101208201527f203231344c323533203231334d313231203231344c313232203231354c3132316101408201527f203231344d323435203231344c323435203231354c323438203231354c3234356101608201527f203231344d313233203231354c313234203231364c313233203231357a222f3e61018082015250565b7f3c7465787420783d223530252220793d223530252220646f6d696e616e742d6260008201527f6173656c696e653d226d6964646c652220746578742d616e63686f723d226d6960208201527f64646c65223e0000000000000000000000000000000000000000000000000000604082015250565b7f3c70617468207374796c653d2266696c6c3a236537633038663b207374726f6b60008201527f653a6e6f6e653b2220643d224d323831203135364c323832203135374c32383160208201527f203135364d323935203135364c323935203137334c323936203137334c32393560408201527f203135364d3237362e363637203135372e3333334c3237372e3333332031353760608201527f2e3636374c3237362e363637203135372e3333334d3237322e3636372031353860808201527f2e3333334c3237332e333333203135382e3636374c3237322e3636372031353860a08201527f2e3333334d323636203135394c323636203136304c323639203136304c32363660c08201527f203135394d323537203136304c323537203136314c323633203136314c32353760e08201527f203136304d323535203136314c323536203136324c323535203136314d3130306101008201527f203136384c313030203136394c313138203136394c313030203136384d3132356101208201527f203136384c313235203136394c313238203136394c313235203136384d3834206101408201527f3136394c3835203137304c3834203136394d3835203137314c3836203137324c6101608201527f3835203137314d3836203137334c3837203137344c3836203137334d383720316101808201527f37354c3838203137364c3837203137354d3838203137374c3839203137384c386101a08201527f38203137374d30203233394331362e38333431203233312e3934352033302e316101c08201527f363531203231332e3838322033382e32343338203139384334302e31373239206101e08201527f3139342e3230382034382e32343031203138322e3439372034322e36373832206102008201527f3137392e3034374333372e30353433203137352e3535392032372e33353632206102208201527f3138372e363735203234203139314331362e383833203139382e30353120342e6102408201527f3136343334203230362e33343220302e36303333393520323136432d312e37376102608201527f343633203232322e34352030203233322e3136352030203233394d38392031376102808201527f394c3930203138304c3839203137394d3930203138314c3931203138324c39306102a08201527f203138314d323934203138314c323935203138324c323934203138314d39312e6102c08201527f33333333203138332e3636374c39312e36363637203138342e3333334c39312e6102e08201527f33333333203138332e3636374d323935203138344c323935203139324c3239366103008201527f203139324c323935203138344d3932203138364c3933203138374c39322031386103208201527f364d3933203138384c3934203138394c3933203138384d3934203139304c39356103408201527f203139314c3934203139304d3935203139324c3936203139334c3935203139326103608201527f4d3936203139344c3937203139354c3936203139344d3239342e3333332031396103808201527f342e3636374c3239342e363637203139352e3333334c3239342e3333332031396103a08201527f342e3636374d3937203139364c3938203139374c3937203139364d39382e33336103c08201527f3333203139372e3636374c39382e36363637203139382e3333334c39382e33336103e08201527f3333203139372e3636374d323933203139384c323934203139394c32393320316104008201527f39384d3939203139394c313030203230304c3939203139397a222f3e0000000061042082015250565b7f227d203533252c31303025207b73746f702d636f6c6f723a6e6f6e657d7d3c2f60008201527f7374796c653e3c73746f70206f66667365743d22302220636c6173733d22636f60208201527f6c6f722d616e696d22207374796c653d2273746f702d636f6c6f723a00000000604082015250565b7f3c70617468207374796c653d2266696c6c3a236537633038663b207374726f6b60008201527f653a6e6f6e653b2220643d224d323935203135324c323936203135334c32393560208201527f203135324d34303020313935433339392e393438203138302e3334392033373160408201527f2e303937203136392e34323720333630203136312e353736433335372e31313160608201527f203135392e353332203334382e333933203135302e393232203334342e36303460808201527f203135332e313631433333382e353639203135362e373239203335302e35323560a08201527f203136382e333834203335332e303135203137302e353732433336362e33332060c08201527f3138322e323731203338322e363731203139302e39393120343030203139357a60e08201527f222f3e000000000000000000000000000000000000000000000000000000000061010082015250565b7f3c70617468207374796c653d2266696c6c3a236537633038663b207374726f6b60008201527f653a6e6f6e653b2220643d224d313434203231394c313434203232304c31353860208201527f203232304c313434203231397a222f3e00000000000000000000000000000000604082015250565b7f3c70617468207374796c653d2266696c6c3a236537633038663b207374726f6b60008201527f653a6e6f6e653b2220643d224d3238382e363637203135342e3333334c32383960208201527f2e333333203135342e3636374c3238382e363637203135342e3333334d32383560408201527f203135354c323836203135364c323835203135357a222f3e0000000000000000606082015250565b7f3c70617468207374796c653d2266696c6c3a236632613533333b207374726f6b60008201527f653a6e6f6e653b2220643d224d323535203136314c323835203135364332383560208201527f203134392e373935203238362e3134203134322e34393720323830203133394360408201527f3238342e393737203133342e3234203238392e393237203132392e373239203260608201527f393720313239433239342e3535203134382e3339203239352e3931342031363860808201527f2e353839203239352e383220313838433239352e3736203230302e343832203260a08201527f39322e3437203231332e333933203239322e30313120323236433239312e363760c08201527f33203233352e323834203239302e343334203234342e383931203238382e362060e08201527f323534433238382e303335203235362e383038203238372e373434203236312e6101008201527f333638203238352e323937203236332e323838433238312e333735203236362e6101208201527f333635203237352e343435203235382e343537203237332e32383620323536436101408201527f3236332e3731203234352e313031203235342e313633203233322e31383420326101608201527f343820323139433235342e323932203232352e303138203236362e34383720326101808201527f33352e383933203237342e333531203232352e383931433237372e37383520326101a08201527f32312e353234203237382e353331203231352e32313620323830203231304c326101c08201527f343120323135433234332e3034203232312e343435203234372e3238342032326101e08201527f372e333836203235312e30303420323333433236312e313937203234382e33386102008201527f35203237362e343039203237352e35373320323937203237364c3239372032376102208201527f354c32393120323735433239382e313634203236342e343738203239382e31386102408201527f33203234382e333538203239392e30383920323336433330312e3036382032306102608201527f392e303032203330322e383339203138322e30333820333034203135354c33306102808201527f3520313535433330352e353233203138302e333336203331372e3633352032326102a08201527f382e32313620333435203233362e373739433336332e353539203234322e35386102c08201527f37203338312e393931203233342e363620343030203233324c343030203230366102e08201527f43343030203230332e303336203430302e3837203139382e323332203339382e6103008201527f393732203139352e373032433339362e353134203139322e343235203338392e6103208201527f363338203139312e36333820333836203139302e313339433337362e373933206103408201527f3138362e333434203336372e383235203138312e37373320333630203137352e6103608201527f3535433335372e303737203137332e323236203333382e323437203135382e346103808201527f3632203334342e363232203135332e383832433334372e393536203135312e346103a08201527f3836203335362e343039203135392e37343220333539203136312e35373643336103c08201527f37312e313433203137302e313637203338352e373832203138322e34363920346103e08201527f303020313837433339392e393838203137312e313135203337342e31342031356104008201527f392e39323120333632203135312e363536433334382e363532203134322e35366104208201527f38203333352e343435203133332e30383120333231203132352e3735364333316104408201527f352e343837203132322e3936203330382e333931203131392e303938203330326104608201527f203131392e333837433239362e323032203131392e363438203239302e3332336104808201527f203132342e333520323836203132372e383038433237342e363535203133362e6104a08201527f383833203236322e373332203134382e36333920323535203136317a222f3e006104c082015250565b7f3c2f746578743e00000000000000000000000000000000000000000000000000600082015250565b7f3c70617468207374796c653d2266696c6c3a236632613533333b207374726f6b60008201527f653a6e6f6e653b2220643d224d323932203139394c323933203230304c32393260208201527f203139397a222f3e000000000000000000000000000000000000000000000000604082015250565b7f3c70617468207374796c653d2266696c6c3a236632613533333b207374726f6b60008201527f653a6e6f6e653b2220643d224d323931203230314c323932203230324c32393160208201527f203230317a222f3e000000000000000000000000000000000000000000000000604082015250565b7f223e3c616e696d617465206174747269627574654e616d653d226f666673657460008201527f22206475723d22313873222076616c7565733d22302e38363b313b302e38362260208201527f20726570656174436f756e743d22696e646566696e697465222f3e3c2f73746f60408201527f703e3c2f6c696e6561724772616469656e743e3c726563742066696c6c3d227560608201527f726c28236772616469656e7432292220783d22302220793d223022207769647460808201527f683d2234303022206865696768743d22343030222f3e3c2f673e00000000000060a082015250565b7f3c73766720786d6c6e733d22687474703a2f2f7777772e77332e6f72672f323060008201527f30302f7376672220783d223070782220793d22307078222076696577426f783d60208201527f22302030203430302034303022207374796c653d22656e61626c652d6261636b60408201527f67726f756e643a6e65772030203020343230203432303b2220786d6c3a73706160608201527f63653d227072657365727665223e3c672069643d224261636b67726f756e642260808201527f3e3c6c696e6561724772616469656e742069643d226772616469656e7432222060a08201527f63783d22333030222063793d222d3230302220723d223231302e30323522206760c08201527f72616469656e745472616e73666f726d3d226d6174726978283120302030202d60e08201527f3120302037362922206772616469656e74556e6974733d2275736572537061636101008201527f654f6e557365223e00000000000000000000000000000000000000000000000061012082015250565b7f223e3c616e696d617465206174747269627574654e616d653d226f666673657460008201527f22206475723d22313873222076616c7565733d22302e35343b302e383b302e3560208201527f342220726570656174436f756e743d22696e646566696e69746522206b65795460408201527f696d65733d22303b2e343b31222f3e3c2f73746f703e00000000000000000000606082015250565b7f3c7374796c653e2e636f6c6f722d616e696d207b616e696d6174696f6e3a206360008201527f6f6c20367320696e66696e6974653b616e696d6174696f6e2d74696d696e672d60208201527f66756e6374696f6e3a20656173652d696e2d6f75743b7d406b65796672616d6560408201527f7320636f6c207b30252c353125207b73746f702d636f6c6f723a6e6f6e657d2060608201527f353225207b73746f702d636f6c6f723a22000000000000000000000000000000608082015250565b7f3c70617468207374796c653d2266696c6c3a236537633038663b207374726f6b60008201527f653a6e6f6e653b2220643d224d313235203231364c313236203231374c31323560208201527f203231367a222f3e000000000000000000000000000000000000000000000000604082015250565b7f3c7465787420783d223530252220793d223435252220646f6d696e616e742d6260008201527f6173656c696e653d226d6964646c652220746578742d616e63686f723d226d6960208201527f64646c65223e0000000000000000000000000000000000000000000000000000604082015250565b7f3c70617468207374796c653d2266696c6c3a236537633038663b207374726f6b60008201527f653a6e6f6e653b2220643d224d313030203230314c313031203230324c31303060208201527f203230317a222f3e000000000000000000000000000000000000000000000000604082015250565b7f3c70617468207374796c653d2266696c6c3a236435376232393b207374726f6b60008201527f653a6e6f6e653b2220643d224d33303420313535433330312e3932342031383160208201527f2e333038203330312e373135203230372e363937203239392e3137203233344360408201527f3239372e383238203234372e3837203239372e343439203236322e333738203260608201527f393120323735433332382e36383920323735203336342e333034203235372e3760808201527f343320343030203234384c34303020323332433338322e363037203233332e3560a08201527f3138203336372e313135203234302e393520333439203233372e35333243333260c08201527f322e323334203233322e343833203331332e303233203139352e33363220333060e08201527f372e38383120313733433330362e353435203136372e313838203330362e34336101008201527f31203136302e34313420333034203135357a222f3e000000000000000000000061012082015250565b7f3c70617468207374796c653d2266696c6c3a236632613533333b207374726f6b60008201527f653a6e6f6e653b2220643d224d333937203234384c333938203234394c33393760208201527f203234384d333932203235304c333933203235314c333932203235304d33383960408201527f203235314c333930203235324c333839203235314d333836203235324c33383760608201527f203235334c333836203235324d333833203235334c333834203235344c33383360808201527f203235334d333830203235344c333831203235354c333830203235344d33373760a08201527f203235354c333738203235364c333737203235354d333734203235364c33373560c08201527f203235374c333734203235364d333731203235374c333732203235384c33373160e08201527f203235374d333638203235384c333639203235394c333638203235384d3336346101008201527f203235394c333635203236304c333634203235394d333631203236304c3336326101208201527f203236314c333631203236304d333538203236314c333539203236324c3335386101408201527f203236314d333535203236324c333536203236334c333535203236324d3335316101608201527f203236334c333532203236344c333531203236334d333437203236344c3334386101808201527f203236354c333437203236344d3334332e363637203236352e3333334c3334346101a08201527f2e333333203236352e3636374c3334332e363637203236352e3333334d3334306101c08201527f203236364c333431203236374c333430203236364d333336203236374c3333376101e08201527f203236384c333336203236374d3333322e363637203236382e3333334c3333336102008201527f2e333333203236382e3636374c3333322e363637203236382e3333334d3920326102208201527f36394c39203237304c3135203237304c39203236394d333238203236394c33326102408201527f39203237304c333238203236394d32382e36363637203237302e3333334c32396102608201527f2e33333333203237302e3636374c32382e36363637203237302e3333334d33326102808201527f332e363637203237302e3333334c3332342e333333203237302e3636374c33326102a08201527f332e363637203237302e3333334d3336203237314c3337203237324c333620326102c08201527f37314d333139203237314c333230203237324c333139203237314d34342032376102e08201527f324c3435203237334c3434203237324d3331342e363637203237322e3333334c6103008201527f3331352e333333203237322e3636374c3331342e363637203237322e3333334d6103208201527f3532203237334c3532203237344c3535203237344c3532203237334d3330392e6103408201527f363637203237332e3333334c3331302e333333203237332e3636374c3330392e6103608201527f363637203237332e3333334d3631203237344c3631203237354c3634203237356103808201527f4c3631203237344d3330332e363637203237342e3333334c3330342e333333206103a08201527f3237342e3636374c3330332e363637203237342e3333334d37302e36363637206103c08201527f3237352e3333334c37312e33333333203237352e3636374c37302e36363637206103e08201527f3237352e3333334d3831203237364c3831203237374c3835203237374c3831206104008201527f3237364d3934203237374c3934203237384c313030203237384c3934203237376104208201527f4d313237203237374c313237203237384c313330203237384c313237203237376104408201527f7a222f3e0000000000000000000000000000000000000000000000000000000061046082015250565b7f3c70617468207374796c653d2266696c6c3a236435376232393b207374726f6b60008201527f653a6e6f6e653b2220643d224d32383020313339433238352e3132312031343360208201527f2e343035203238342e393939203134382e36363120323835203135354332393960408201527f2e333031203135322e383838203239362e303637203134302e3832382032393760608201527f20313239433238392e383238203132392e333733203238342e3139392031333360808201527f2e32393920323830203133397a222f3e0000000000000000000000000000000060a082015250565b7f3c70617468207374796c653d2266696c6c3a236435376232393b207374726f6b60008201527f653a6e6f6e653b2220643d224d3130312032313743313031203232342e36393160208201527f203130312e323834203233312e3936382039372e353938203233394338362e3560408201527f353734203236302e3036352035362e34333234203236322e353736203336203260608201527f35372e3031314332342e37363336203235332e393520302e353235303631203260808201527f35332e3836362030203237304333322e35303639203236392e3937392036342e60a08201527f34383337203237352e383736203937203237372e33433131312e39303620323760c08201527f372e393533203132372e353234203237392e35393120313432203237354c313460e08201527f3220323734433132312e363737203236332e343238203131352e3238352032336101008201527f332e34343220313031203231377a222f3e00000000000000000000000000000061012082015250565b7f3c70617468207374796c653d2266696c6c3a236537633038663b207374726f6b60008201527f653a6e6f6e653b2220643d224d323932203135334c323933203135344c32393260208201527f203135337a222f3e000000000000000000000000000000000000000000000000604082015250565b7f3c73746f70206f66667365743d223122207374796c653d2273746f702d636f6c60008201527f6f723a0000000000000000000000000000000000000000000000000000000000602082015250565b7f3c2f7376673e0000000000000000000000000000000000000000000000000000600082015250565b7f3c70617468207374796c653d2266696c6c3a236632613533333b207374726f6b60008201527f653a6e6f6e653b2220643d224d302032313543362e3535333434203231302e3360208201527f38332031302e39393333203230332e3636382031372e30303038203139382e3460408201527f32344332302e34363139203139352e3430332032332e37323339203139322e3260608201527f33392032362e39393631203138392e3031354332392e37353639203138362e3260808201527f39352033392e31343233203137342e3938362034332e33303332203138302e3360a08201527f33374334362e373034203138342e3731312033392e33313734203139352e303460c08201527f392033372e32313834203139394333312e33333834203231302e30363820323360e08201527f2e30333439203232302e333233203134203232382e3936314331302e343234386101008201527f203233322e33373920322e35363139203233352e37303320302e3630333339356101208201527f203234302e323133432d322e3039313638203234362e34322030203235372e326101408201527f373220302032363443372e3039373633203236302e3236322031332e373330326101608201527f203235352e363032203232203235352e3039344332392e32393835203235342e6101808201527f3634352033352e38393334203235372e393832203433203235382e38334336336101a08201527f2e35373332203236312e3238352039322e31323135203235382e3034362039396101c08201527f2e3634303420323335433130312e353334203232392e313937203130312032326101e08201527f332e30323320313031203231374c31303220323137433130362e3935342032336102008201527f322e363535203131392e353338203234382e383233203132392e3135312032366102208201527f32433133312e373236203236352e3533203133362e343934203237342e3238376102408201527f203134312e383935203237332e313638433134362e323939203237322e3235366102608201527f203134382e323536203236342e353938203134392e35363420323631433135346102808201527f2e323932203234372e393938203135372e323539203233332e373033203135396102a08201527f20323230433134302e39343120323230203132392e383437203231372e3230396102c08201527f20313134203230392e323939433131302e3236203230372e343333203130352e6102e08201527f363637203230372e393336203130322e363334203230342e3639374339342e316103008201527f353233203139352e3633382038382e37323639203137392e33353420383420316103208201527f36384c31323720313638433131382e323037203135372e313938203130322e396103408201527f3831203134382e303035203931203134312e3031324338362e323434342031336103608201527f382e3233362037392e36343135203133342e383932203734203133362e3930386103808201527f4336382e34343631203133382e3839332036342e30343932203134342e3935316103a08201527f203630203134394c3331203137384332312e37303135203138372e32393920306103c08201527f2e3136323934203230312e3230332030203231354d323934203135324c3239356103e08201527f203135334c323934203135327a222f3e0000000000000000000000000000000061040082015250565b61458181611647565b811461458c57600080fd5b50565b61459881611679565b81146145a357600080fd5b5056fea264697066735822122003d4d58b02209978060c78e11fd7bf966a66683c495b9256fb87d8718fac5dad64736f6c63430008020033",
  "linkReferences": {
    "contracts/libraries/Lines1.sol": {
      "Lines1": [
        {
          "length": 20,
          "start": 3107
        }
      ]
    },
    "contracts/libraries/Lines2.sol": {
      "Lines2": [
        {
          "length": 20,
          "start": 2958
        }
      ]
    },
    "contracts/libraries/Lines3.sol": {
      "Lines3": [
        {
          "length": 20,
          "start": 2801
        }
      ]
    }
  },
  "deployedLinkReferences": {
    "contracts/libraries/Lines1.sol": {
      "Lines1": [
        {
          "length": 20,
          "start": 720
        }
      ]
    },
    "contracts/libraries/Lines2.sol": {
      "Lines2": [
        {
          "length": 20,
          "start": 571
        }
      ]
    },
    "contracts/libraries/Lines3.sol": {
      "Lines3": [
        {
          "length": 20,
          "start": 414
        }
      ]
    }
  }
}