{
  "_format": "hh-sol-artifact-1",
  "contractName": "Lines1",
  "sourceName": "contracts/libraries/Lines1.sol",
  "abi": [
    {
      "inputs": [],
      "name": "fortune_1",
      "outputs": [
        {
          "internalType": "string[2]",
          "name": "",
          "type": "string[2]"
        }
      ],
      "stateMutability": "pure",
      "type": "function"
    },
    {
      "inputs": [],
      "name": "fortune_10",
      "outputs": [
        {
          "internalType": "string[2]",
          "name": "",
          "type": "string[2]"
        }
      ],
      "stateMutability": "pure",
      "type": "function"
    },
    {
      "inputs": [],
      "name": "fortune_11",
      "outputs": [
        {
          "internalType": "string[2]",
          "name": "",
          "type": "string[2]"
        }
      ],
      "stateMutability": "pure",
      "type": "function"
    },
    {
      "inputs": [],
      "name": "fortune_12",
      "outputs": [
        {
          "internalType": "string[2]",
          "name": "",
          "type": "string[2]"
        }
      ],
      "stateMutability": "pure",
      "type": "function"
    },
    {
      "inputs": [],
      "name": "fortune_13",
      "outputs": [
        {
          "internalType": "string[2]",
          "name": "",
          "type": "string[2]"
        }
      ],
      "stateMutability": "pure",
      "type": "function"
    },
    {
      "inputs": [],
      "name": "fortune_14",
      "outputs": [
        {
          "internalType": "string[2]",
          "name": "",
          "type": "string[2]"
        }
      ],
      "stateMutability": "pure",
      "type": "function"
    },
    {
      "inputs": [],
      "name": "fortune_15",
      "outputs": [
        {
          "internalType": "string[2]",
          "name": "",
          "type": "string[2]"
        }
      ],
      "stateMutability": "pure",
      "type": "function"
    },
    {
      "inputs": [],
      "name": "fortune_16",
      "outputs": [
        {
          "internalType": "string[2]",
          "name": "",
          "type": "string[2]"
        }
      ],
      "stateMutability": "pure",
      "type": "function"
    },
    {
      "inputs": [],
      "name": "fortune_17",
      "outputs": [
        {
          "internalType": "string[2]",
          "name": "",
          "type": "string[2]"
        }
      ],
      "stateMutability": "pure",
      "type": "function"
    },
    {
      "inputs": [],
      "name": "fortune_18",
      "outputs": [
        {
          "internalType": "string[2]",
          "name": "",
          "type": "string[2]"
        }
      ],
      "stateMutability": "pure",
      "type": "function"
    },
    {
      "inputs": [],
      "name": "fortune_19",
      "outputs": [
        {
          "internalType": "string[2]",
          "name": "",
          "type": "string[2]"
        }
      ],
      "stateMutability": "pure",
      "type": "function"
    },
    {
      "inputs": [],
      "name": "fortune_2",
      "outputs": [
        {
          "internalType": "string[2]",
          "name": "",
          "type": "string[2]"
        }
      ],
      "stateMutability": "pure",
      "type": "function"
    },
    {
      "inputs": [],
      "name": "fortune_20",
      "outputs": [
        {
          "internalType": "string[2]",
          "name": "",
          "type": "string[2]"
        }
      ],
      "stateMutability": "pure",
      "type": "function"
    },
    {
      "inputs": [],
      "name": "fortune_3",
      "outputs": [
        {
          "internalType": "string[2]",
          "name": "",
          "type": "string[2]"
        }
      ],
      "stateMutability": "pure",
      "type": "function"
    },
    {
      "inputs": [],
      "name": "fortune_4",
      "outputs": [
        {
          "internalType": "string[2]",
          "name": "",
          "type": "string[2]"
        }
      ],
      "stateMutability": "pure",
      "type": "function"
    },
    {
      "inputs": [],
      "name": "fortune_5",
      "outputs": [
        {
          "internalType": "string[2]",
          "name": "",
          "type": "string[2]"
        }
      ],
      "stateMutability": "pure",
      "type": "function"
    },
    {
      "inputs": [],
      "name": "fortune_6",
      "outputs": [
        {
          "internalType": "string[2]",
          "name": "",
          "type": "string[2]"
        }
      ],
      "stateMutability": "pure",
      "type": "function"
    },
    {
      "inputs": [],
      "name": "fortune_7",
      "outputs": [
        {
          "internalType": "string[2]",
          "name": "",
          "type": "string[2]"
        }
      ],
      "stateMutability": "pure",
      "type": "function"
    },
    {
      "inputs": [],
      "name": "fortune_8",
      "outputs": [
        {
          "internalType": "string[2]",
          "name": "",
          "type": "string[2]"
        }
      ],
      "stateMutability": "pure",
      "type": "function"
    },
    {
      "inputs": [],
      "name": "fortune_9",
      "outputs": [
        {
          "internalType": "string[2]",
          "name": "",
          "type": "string[2]"
        }
      ],
      "stateMutability": "pure",
      "type": "function"
    },
    {
      "inputs": [
        {
          "internalType": "uint256",
          "name": "rand",
          "type": "uint256"
        }
      ],
      "name": "getFortuneLines",
      "outputs": [
        {
          "internalType": "string[2]",
          "name": "",
          "type": "string[2]"
        }
      ],
      "stateMutability": "pure",
      "type": "function"
    }
  ],
  "bytecode": "0x6112e3610053600b82828239805160001a607314610046577f4e487b7100000000000000000000000000000000000000000000000000000000600052600060045260246000fd5b30600052607381538281f3fe73000000000000000000000000000000000000000030146080604052600436106101415760003560e01c8063a0566948116100c2578063c090d57911610086578063c090d5791461031a578063d62c23d614610338578063e0a4588314610356578063e14df6a914610374578063e28de4de14610392578063f22aa21f146103b057610141565b8063a056694814610284578063a0963255146102a2578063a3fbfbdc146102c0578063a8a6d11a146102de578063b0553181146102fc57610141565b80632787ed39116101095780632787ed39146101dc5780634eb9e761146101fa57806366f5322d1461021857806392666ed91461023657806392d539831461025457610141565b806308656eaa1461014657806315108c1514610164578063190b42d9146101825780631f0f9ec7146101a05780631feda37a146101be575b600080fd5b61014e6103ce565b60405161015b91906111dd565b60405180910390f35b61016c61045a565b60405161017991906111dd565b60405180910390f35b61018a6104e6565b60405161019791906111dd565b60405180910390f35b6101a8610572565b6040516101b591906111dd565b60405180910390f35b6101c66105fe565b6040516101d391906111dd565b60405180910390f35b6101e461068a565b6040516101f191906111dd565b60405180910390f35b610202610716565b60405161020f91906111dd565b60405180910390f35b6102206107a2565b60405161022d91906111dd565b60405180910390f35b61023e61082e565b60405161024b91906111dd565b60405180910390f35b61026e600480360381019061026991906110f2565b6108ba565b60405161027b91906111dd565b60405180910390f35b61028c610ab2565b60405161029991906111dd565b60405180910390f35b6102aa610b3e565b6040516102b791906111dd565b60405180910390f35b6102c8610bca565b6040516102d591906111dd565b60405180910390f35b6102e6610c56565b6040516102f391906111dd565b60405180910390f35b610304610ce2565b60405161031191906111dd565b60405180910390f35b610322610d6e565b60405161032f91906111dd565b60405180910390f35b610340610dfa565b60405161034d91906111dd565b60405180910390f35b61035e610e86565b60405161036b91906111dd565b60405180910390f35b61037c610f12565b60405161038991906111dd565b60405180910390f35b61039a610f9e565b6040516103a791906111dd565b60405180910390f35b6103b861102a565b6040516103c591906111dd565b60405180910390f35b6103d66110b6565b60405180604001604052806040518060400160405280601781526020017f446f206e6f74207075727375652068617070696e65737300000000000000000081525081526020016040518060400160405280600c81526020017f2d206372656174652069742e0000000000000000000000000000000000000000815250815250905090565b6104626110b6565b60405180604001604052806040518060400160405280600f81526020017f54727920616e64206661696c202d20000000000000000000000000000000000081525081526020016040518060400160405280601681526020017f627574206e65766572206661696c20746f207472792e00000000000000000000815250815250905090565b6104ee6110b6565b60405180604001604052806040518060400160405280601981526020017f53746f7020736179696e672079657320746f207468696e67730000000000000081525081526020016040518060400160405280601681526020017f796f7520646f206e6f742077616e7420746f20646f2e00000000000000000000815250815250905090565b61057a6110b6565b60405180604001604052806040518060400160405280601881526020017f416c6c207468696e67732061726520646966666963756c74000000000000000081525081526020016040518060400160405280601581526020017f6265666f726520746865792061726520656173792e0000000000000000000000815250815250905090565b6106066110b6565b60405180604001604052806040518060400160405280600881526020017f43504720436c756200000000000000000000000000000000000000000000000081525081526020016040518060400160405280600c81526020017f746f20746865204d6f6f6e210000000000000000000000000000000000000000815250815250905090565b6106926110b6565b60405180604001604052806040518060400160405280601181526020017f457468657265756d20697320676f696e6700000000000000000000000000000081525081526020016040518060400160405280600681526020017f746f2032306b0000000000000000000000000000000000000000000000000000815250815250905090565b61071e6110b6565b60405180604001604052806040518060400160405280601a81526020017f596f757220726f616420746f20676c6f72792077696c6c20626500000000000081525081526020016040518060400160405280601781526020017f726f636b79202d206275742066756c6c66696c6c696e67000000000000000000815250815250905090565b6107aa6110b6565b60405180604001604052806040518060400160405280601881526020017f446f206e6f7420776f7272792061626f7574206d6f6e6579000000000000000081525081526020016040518060400160405280601681526020017f62657374207468696e67732061726520696e2045544800000000000000000000815250815250905090565b6108366110b6565b60405180604001604052806040518060400160405280601281526020017f426967206a6f75726e65797320626567696e000000000000000000000000000081525081526020016040518060400160405280601481526020017f7769746820612073696e676c6520737465702e20000000000000000000000000815250815250905090565b6108c26110b6565b60018214156108da576108d361068a565b9050610aad565b60028214156108f2576108eb610716565b9050610aad565b600382141561090a57610903610b3e565b9050610aad565b60048214156109225761091b6107a2565b9050610aad565b600582141561093a576109336103ce565b9050610aad565b60068214156109525761094b610572565b9050610aad565b600782141561096a57610963610f9e565b9050610aad565b60088214156109825761097b610f12565b9050610aad565b600982141561099a5761099361082e565b9050610aad565b600a8214156109b2576109ab6105fe565b9050610aad565b600b8214156109ca576109c3610d6e565b9050610aad565b600c8214156109e2576109db610c56565b9050610aad565b600d8214156109fa576109f3610e86565b9050610aad565b600e821415610a1257610a0b61102a565b9050610aad565b600f821415610a2a57610a23610ab2565b9050610aad565b6010821415610a4257610a3b61045a565b9050610aad565b6011821415610a5a57610a53610dfa565b9050610aad565b6012821415610a7257610a6b610bca565b9050610aad565b6013821415610a8a57610a83610ce2565b9050610aad565b6014821415610aa257610a9b6104e6565b9050610aad565b610aaa61068a565b90505b919050565b610aba6110b6565b60405180604001604052806040518060400160405280600c81526020017f537461792068756e6772792e000000000000000000000000000000000000000081525081526020016040518060400160405280600d81526020017f5374617920666f6f6c6973682e00000000000000000000000000000000000000815250815250905090565b610b466110b6565b60405180604001604052806040518060400160405280601581526020017f50617469656e636520697320796f757220616c6c79000000000000000000000081525081526020016040518060400160405280600d81526020017f446f206e6f7420776f7272792100000000000000000000000000000000000000815250815250905090565b610bd26110b6565b60405180604001604052806040518060400160405280600a81526020017f456d62726163652061200000000000000000000000000000000000000000000081525081526020016040518060400160405280600e81526020017f6e6577206e61727261746976652e000000000000000000000000000000000000815250815250905090565b610c5e6110b6565b60405180604001604052806040518060400160405280601381526020017f4c6974746c65206279206c6974746c65202d200000000000000000000000000081525081526020016040518060400160405280600f81526020017f6f6e652074726176656c73206661720000000000000000000000000000000000815250815250905090565b610cea6110b6565b60405180604001604052806040518060400160405280600b81526020017f476574206c6f737420696e00000000000000000000000000000000000000000081525081526020016040518060400160405280601481526020017f74686520726967687420646972656374696f6e2e000000000000000000000000815250815250905090565b610d766110b6565b60405180604001604052806040518060400160405280600e81526020017f53616c7420616e6420737567617200000000000000000000000000000000000081525081526020016040518060400160405280600e81526020017f6c6f6f6b207468652073616d652e000000000000000000000000000000000000815250815250905090565b610e026110b6565b60405180604001604052806040518060400160405280600a81526020017f53617920796573202d200000000000000000000000000000000000000000000081525081526020016040518060400160405280601381526020017f7468656e20666967757265206974206f75742e00000000000000000000000000815250815250905090565b610e8e6110b6565b60405180604001604052806040518060400160405280600d81526020017f4e6f7420616c6c2074686f73650000000000000000000000000000000000000081525081526020016040518060400160405280601481526020017f77686f2077616e64657220617265206c6f73742e000000000000000000000000815250815250905090565b610f1a6110b6565b60405180604001604052806040518060400160405280601681526020017f746f2067657420746865206672756974202d206f6e650000000000000000000081525081526020016040518060400160405280601481526020017f6d75737420636c696d622074686520747265652e000000000000000000000000815250815250905090565b610fa66110b6565b60405180604001604052806040518060400160405280601a81526020017f4665617220697320696e7465726573742070616964206f6e206100000000000081525081526020016040518060400160405280601581526020017f6465627420796f75206d6179206e6f74206f77652e0000000000000000000000815250815250905090565b6110326110b6565b60405180604001604052806040518060400160405280600c81526020017f596f752061726520796f7572000000000000000000000000000000000000000081525081526020016040518060400160405280600b81526020017f62657374207468696e672e000000000000000000000000000000000000000000815250815250905090565b60405180604001604052806002905b60608152602001906001900390816110c55790505090565b6000813590506110ec81611296565b92915050565b60006020828403121561110457600080fd5b6000611112848285016110dd565b91505092915050565b600061112783836111a4565b905092915050565b600061113a82611209565b611144818561122c565b935083602082028501611156856111ff565b8060005b858110156111925784840389528151611173858261111b565b945061117e8361121f565b925060208a0199505060018101905061115a565b50829750879550505050505092915050565b60006111af82611214565b6111b98185611237565b93506111c9818560208601611252565b6111d281611285565b840191505092915050565b600060208201905081810360008301526111f7818461112f565b905092915050565b6000819050919050565b600060029050919050565b600081519050919050565b6000602082019050919050565b600081905092915050565b600082825260208201905092915050565b6000819050919050565b60005b83811015611270578082015181840152602081019050611255565b8381111561127f576000848401525b50505050565b6000601f19601f8301169050919050565b61129f81611248565b81146112aa57600080fd5b5056fea2646970667358221220fc78ba55d6487ca2ea655819964bddbc8a17234faab947df0927ed00c1af225064736f6c63430008020033",
  "linkReferences": {},
  "deployedLinkReferences": {}
}