{
  "_format": "hh-sol-artifact-1",
  "contractName": "FortuneCooky",
  "sourceName": "contracts/FortuneCooky.sol",
  "abi": [
    {
      "inputs": [
        {
          "internalType": "address",
          "name": "_transferWallet",
          "type": "address"
        },
        {
          "internalType": "address",
          "name": "_buildCooky",
          "type": "address"
        }
      ],
      "stateMutability": "nonpayable",
      "type": "constructor"
    },
    {
      "anonymous": false,
      "inputs": [
        {
          "indexed": true,
          "internalType": "address",
          "name": "owner",
          "type": "address"
        },
        {
          "indexed": true,
          "internalType": "address",
          "name": "approved",
          "type": "address"
        },
        {
          "indexed": true,
          "internalType": "uint256",
          "name": "tokenId",
          "type": "uint256"
        }
      ],
      "name": "Approval",
      "type": "event"
    },
    {
      "anonymous": false,
      "inputs": [
        {
          "indexed": true,
          "internalType": "address",
          "name": "owner",
          "type": "address"
        },
        {
          "indexed": true,
          "internalType": "address",
          "name": "operator",
          "type": "address"
        },
        {
          "indexed": false,
          "internalType": "bool",
          "name": "approved",
          "type": "bool"
        }
      ],
      "name": "ApprovalForAll",
      "type": "event"
    },
    {
      "anonymous": false,
      "inputs": [
        {
          "indexed": true,
          "internalType": "uint256",
          "name": "id",
          "type": "uint256"
        }
      ],
      "name": "NewFortune",
      "type": "event"
    },
    {
      "anonymous": false,
      "inputs": [
        {
          "indexed": true,
          "internalType": "uint256",
          "name": "id",
          "type": "uint256"
        }
      ],
      "name": "NewFortuneCooky",
      "type": "event"
    },
    {
      "anonymous": false,
      "inputs": [
        {
          "indexed": true,
          "internalType": "address",
          "name": "previousOwner",
          "type": "address"
        },
        {
          "indexed": true,
          "internalType": "address",
          "name": "newOwner",
          "type": "address"
        }
      ],
      "name": "OwnershipTransferred",
      "type": "event"
    },
    {
      "anonymous": false,
      "inputs": [
        {
          "indexed": false,
          "internalType": "uint256",
          "name": "tokenId",
          "type": "uint256"
        },
        {
          "components": [
            {
              "internalType": "address payable",
              "name": "account",
              "type": "address"
            },
            {
              "internalType": "uint96",
              "name": "value",
              "type": "uint96"
            }
          ],
          "indexed": false,
          "internalType": "struct LibPart.Part[]",
          "name": "royalties",
          "type": "tuple[]"
        }
      ],
      "name": "RoyaltiesSet",
      "type": "event"
    },
    {
      "anonymous": false,
      "inputs": [
        {
          "indexed": true,
          "internalType": "address",
          "name": "from",
          "type": "address"
        },
        {
          "indexed": true,
          "internalType": "address",
          "name": "to",
          "type": "address"
        },
        {
          "indexed": true,
          "internalType": "uint256",
          "name": "tokenId",
          "type": "uint256"
        }
      ],
      "name": "Transfer",
      "type": "event"
    },
    {
      "inputs": [],
      "name": "LISTING_PRICE",
      "outputs": [
        {
          "internalType": "uint256",
          "name": "",
          "type": "uint256"
        }
      ],
      "stateMutability": "view",
      "type": "function"
    },
    {
      "inputs": [],
      "name": "MAX_MINT",
      "outputs": [
        {
          "internalType": "uint256",
          "name": "",
          "type": "uint256"
        }
      ],
      "stateMutability": "view",
      "type": "function"
    },
    {
      "inputs": [],
      "name": "MAX_TOKENS",
      "outputs": [
        {
          "internalType": "uint256",
          "name": "",
          "type": "uint256"
        }
      ],
      "stateMutability": "view",
      "type": "function"
    },
    {
      "inputs": [
        {
          "internalType": "address",
          "name": "to",
          "type": "address"
        },
        {
          "internalType": "uint256",
          "name": "tokenId",
          "type": "uint256"
        }
      ],
      "name": "approve",
      "outputs": [],
      "stateMutability": "nonpayable",
      "type": "function"
    },
    {
      "inputs": [
        {
          "internalType": "address",
          "name": "owner",
          "type": "address"
        }
      ],
      "name": "balanceOf",
      "outputs": [
        {
          "internalType": "uint256",
          "name": "",
          "type": "uint256"
        }
      ],
      "stateMutability": "view",
      "type": "function"
    },
    {
      "inputs": [
        {
          "internalType": "uint256",
          "name": "tokenId",
          "type": "uint256"
        }
      ],
      "name": "getApproved",
      "outputs": [
        {
          "internalType": "address",
          "name": "",
          "type": "address"
        }
      ],
      "stateMutability": "view",
      "type": "function"
    },
    {
      "inputs": [
        {
          "internalType": "address",
          "name": "_to",
          "type": "address"
        },
        {
          "internalType": "uint256",
          "name": "tokenId",
          "type": "uint256"
        }
      ],
      "name": "getBgID",
      "outputs": [
        {
          "internalType": "uint256",
          "name": "",
          "type": "uint256"
        }
      ],
      "stateMutability": "view",
      "type": "function"
    },
    {
      "inputs": [
        {
          "internalType": "address",
          "name": "_to",
          "type": "address"
        },
        {
          "internalType": "uint256",
          "name": "tokenId",
          "type": "uint256"
        }
      ],
      "name": "getNewFortune",
      "outputs": [],
      "stateMutability": "nonpayable",
      "type": "function"
    },
    {
      "inputs": [
        {
          "internalType": "uint256",
          "name": "id",
          "type": "uint256"
        }
      ],
      "name": "getRaribleV2Royalties",
      "outputs": [
        {
          "components": [
            {
              "internalType": "address payable",
              "name": "account",
              "type": "address"
            },
            {
              "internalType": "uint96",
              "name": "value",
              "type": "uint96"
            }
          ],
          "internalType": "struct LibPart.Part[]",
          "name": "",
          "type": "tuple[]"
        }
      ],
      "stateMutability": "view",
      "type": "function"
    },
    {
      "inputs": [
        {
          "internalType": "address",
          "name": "owner",
          "type": "address"
        },
        {
          "internalType": "address",
          "name": "operator",
          "type": "address"
        }
      ],
      "name": "isApprovedForAll",
      "outputs": [
        {
          "internalType": "bool",
          "name": "",
          "type": "bool"
        }
      ],
      "stateMutability": "view",
      "type": "function"
    },
    {
      "inputs": [
        {
          "internalType": "address",
          "name": "_to",
          "type": "address"
        },
        {
          "internalType": "uint256",
          "name": "_count",
          "type": "uint256"
        }
      ],
      "name": "mint",
      "outputs": [],
      "stateMutability": "payable",
      "type": "function"
    },
    {
      "inputs": [],
      "name": "name",
      "outputs": [
        {
          "internalType": "string",
          "name": "",
          "type": "string"
        }
      ],
      "stateMutability": "view",
      "type": "function"
    },
    {
      "inputs": [],
      "name": "owner",
      "outputs": [
        {
          "internalType": "address",
          "name": "",
          "type": "address"
        }
      ],
      "stateMutability": "view",
      "type": "function"
    },
    {
      "inputs": [
        {
          "internalType": "address",
          "name": "_to",
          "type": "address"
        },
        {
          "internalType": "uint256",
          "name": "_count",
          "type": "uint256"
        }
      ],
      "name": "ownerMintTransfer",
      "outputs": [],
      "stateMutability": "nonpayable",
      "type": "function"
    },
    {
      "inputs": [
        {
          "internalType": "uint256",
          "name": "tokenId",
          "type": "uint256"
        }
      ],
      "name": "ownerOf",
      "outputs": [
        {
          "internalType": "address",
          "name": "",
          "type": "address"
        }
      ],
      "stateMutability": "view",
      "type": "function"
    },
    {
      "inputs": [],
      "name": "renounceOwnership",
      "outputs": [],
      "stateMutability": "nonpayable",
      "type": "function"
    },
    {
      "inputs": [
        {
          "internalType": "uint256",
          "name": "",
          "type": "uint256"
        },
        {
          "internalType": "uint256",
          "name": "",
          "type": "uint256"
        }
      ],
      "name": "royalties",
      "outputs": [
        {
          "internalType": "address payable",
          "name": "account",
          "type": "address"
        },
        {
          "internalType": "uint96",
          "name": "value",
          "type": "uint96"
        }
      ],
      "stateMutability": "view",
      "type": "function"
    },
    {
      "inputs": [
        {
          "internalType": "uint256",
          "name": "_tokenId",
          "type": "uint256"
        },
        {
          "internalType": "uint256",
          "name": "_salePrice",
          "type": "uint256"
        }
      ],
      "name": "royaltyInfo",
      "outputs": [
        {
          "internalType": "address",
          "name": "receiver",
          "type": "address"
        },
        {
          "internalType": "uint256",
          "name": "royaltyAmount",
          "type": "uint256"
        }
      ],
      "stateMutability": "view",
      "type": "function"
    },
    {
      "inputs": [
        {
          "internalType": "address",
          "name": "from",
          "type": "address"
        },
        {
          "internalType": "address",
          "name": "to",
          "type": "address"
        },
        {
          "internalType": "uint256",
          "name": "tokenId",
          "type": "uint256"
        }
      ],
      "name": "safeTransferFrom",
      "outputs": [],
      "stateMutability": "nonpayable",
      "type": "function"
    },
    {
      "inputs": [
        {
          "internalType": "address",
          "name": "from",
          "type": "address"
        },
        {
          "internalType": "address",
          "name": "to",
          "type": "address"
        },
        {
          "internalType": "uint256",
          "name": "tokenId",
          "type": "uint256"
        },
        {
          "internalType": "bytes",
          "name": "_data",
          "type": "bytes"
        }
      ],
      "name": "safeTransferFrom",
      "outputs": [],
      "stateMutability": "nonpayable",
      "type": "function"
    },
    {
      "inputs": [
        {
          "internalType": "address",
          "name": "operator",
          "type": "address"
        },
        {
          "internalType": "bool",
          "name": "approved",
          "type": "bool"
        }
      ],
      "name": "setApprovalForAll",
      "outputs": [],
      "stateMutability": "nonpayable",
      "type": "function"
    },
    {
      "inputs": [
        {
          "internalType": "uint256",
          "name": "_tokenId",
          "type": "uint256"
        },
        {
          "internalType": "address payable",
          "name": "_royaltiesReceipientAddress",
          "type": "address"
        },
        {
          "internalType": "uint96",
          "name": "_percentageBasisPoints",
          "type": "uint96"
        }
      ],
      "name": "setRoyalties",
      "outputs": [],
      "stateMutability": "nonpayable",
      "type": "function"
    },
    {
      "inputs": [
        {
          "internalType": "bytes4",
          "name": "interfaceId",
          "type": "bytes4"
        }
      ],
      "name": "supportsInterface",
      "outputs": [
        {
          "internalType": "bool",
          "name": "",
          "type": "bool"
        }
      ],
      "stateMutability": "view",
      "type": "function"
    },
    {
      "inputs": [],
      "name": "symbol",
      "outputs": [
        {
          "internalType": "string",
          "name": "",
          "type": "string"
        }
      ],
      "stateMutability": "view",
      "type": "function"
    },
    {
      "inputs": [
        {
          "internalType": "uint256",
          "name": "tokenId",
          "type": "uint256"
        }
      ],
      "name": "tokenURI",
      "outputs": [
        {
          "internalType": "string",
          "name": "",
          "type": "string"
        }
      ],
      "stateMutability": "view",
      "type": "function"
    },
    {
      "inputs": [
        {
          "internalType": "address",
          "name": "from",
          "type": "address"
        },
        {
          "internalType": "address",
          "name": "to",
          "type": "address"
        },
        {
          "internalType": "uint256",
          "name": "tokenId",
          "type": "uint256"
        }
      ],
      "name": "transferFrom",
      "outputs": [],
      "stateMutability": "nonpayable",
      "type": "function"
    },
    {
      "inputs": [
        {
          "internalType": "address",
          "name": "newOwner",
          "type": "address"
        }
      ],
      "name": "transferOwnership",
      "outputs": [],
      "stateMutability": "nonpayable",
      "type": "function"
    },
    {
      "inputs": [],
      "name": "withdrawAll",
      "outputs": [],
      "stateMutability": "payable",
      "type": "function"
    }
  ],
  "bytecode": "0x60806040523480156200001157600080fd5b506040516200563c3803806200563c833981810160405281019062000037919062000316565b6040518060400160405280600c81526020017f466f7274756e65436f6f6b7900000000000000000000000000000000000000008152506040518060400160405280600581526020017f434f4f4b590000000000000000000000000000000000000000000000000000008152508160009080519060200190620000bb9291906200024f565b508060019080519060200190620000d49291906200024f565b505050620000f7620000eb6200018160201b60201c565b6200018960201b60201c565b81600a60006101000a81548173ffffffffffffffffffffffffffffffffffffffff021916908373ffffffffffffffffffffffffffffffffffffffff16021790555080600b60006101000a81548173ffffffffffffffffffffffffffffffffffffffff021916908373ffffffffffffffffffffffffffffffffffffffff16021790555050506200040a565b600033905090565b6000600760009054906101000a900473ffffffffffffffffffffffffffffffffffffffff16905081600760006101000a81548173ffffffffffffffffffffffffffffffffffffffff021916908373ffffffffffffffffffffffffffffffffffffffff1602179055508173ffffffffffffffffffffffffffffffffffffffff168173ffffffffffffffffffffffffffffffffffffffff167f8be0079c531659141344cd1fd0a4f28419497f9722a3daafe3b4186f6b6457e060405160405180910390a35050565b8280546200025d906200038b565b90600052602060002090601f016020900481019282620002815760008555620002cd565b82601f106200029c57805160ff1916838001178555620002cd565b82800160010185558215620002cd579182015b82811115620002cc578251825591602001919060010190620002af565b5b509050620002dc9190620002e0565b5090565b5b80821115620002fb576000816000905550600101620002e1565b5090565b6000815190506200031081620003f0565b92915050565b600080604083850312156200032a57600080fd5b60006200033a85828601620002ff565b92505060206200034d85828601620002ff565b9150509250929050565b600062000364826200036b565b9050919050565b600073ffffffffffffffffffffffffffffffffffffffff82169050919050565b60006002820490506001821680620003a457607f821691505b60208210811415620003bb57620003ba620003c1565b5b50919050565b7f4e487b7100000000000000000000000000000000000000000000000000000000600052602260045260246000fd5b620003fb8162000357565b81146200040757600080fd5b50565b615222806200041a6000396000f3fe6080604052600436106101b75760003560e01c8063853828b6116100ec578063bf6fc2171161008a578063e985e9c511610064578063e985e9c514610614578063f0292a0314610651578063f2fde38b1461067c578063f47c84c5146106a5576101b7565b8063bf6fc2171461055d578063c87b56dd1461059a578063cad96cca146105d7576101b7565b806395d89b41116100c657806395d89b41146104b7578063a22cb465146104e2578063ad0b9e241461050b578063b88d4fde14610534576101b7565b8063853828b6146104445780638924af741461044e5780638da5cb5b1461048c576101b7565b806340c10f19116101595780636352211e116101335780636352211e1461038857806370a08231146103c5578063715018a6146104025780637395676114610419576101b7565b806340c10f191461031a57806342842e0e146103365780635792887c1461035f576101b7565b8063095ea7b311610195578063095ea7b314610261578063143094db1461028a57806323b872dd146102b35780632a55205a146102dc576101b7565b806301ffc9a7146101bc57806306fdde03146101f9578063081812fc14610224575b600080fd5b3480156101c857600080fd5b506101e360048036038101906101de9190613687565b6106d0565b6040516101f09190614037565b60405180910390f35b34801561020557600080fd5b5061020e61078f565b60405161021b9190614052565b60405180910390f35b34801561023057600080fd5b5061024b6004803603810190610246919061371a565b610821565b6040516102589190613f25565b60405180910390f35b34801561026d57600080fd5b506102886004803603810190610283919061364b565b6108a6565b005b34801561029657600080fd5b506102b160048036038101906102ac9190613743565b6109be565b005b3480156102bf57600080fd5b506102da60048036038101906102d59190613545565b610bab565b005b3480156102e857600080fd5b5061030360048036038101906102fe9190613792565b610c0b565b604051610311929190613fb5565b60405180910390f35b610334600480360381019061032f919061364b565b610de1565b005b34801561034257600080fd5b5061035d60048036038101906103589190613545565b610f96565b005b34801561036b57600080fd5b506103866004803603810190610381919061364b565b610fb6565b005b34801561039457600080fd5b506103af60048036038101906103aa919061371a565b611189565b6040516103bc9190613f25565b60405180910390f35b3480156103d157600080fd5b506103ec60048036038101906103e791906134e0565b61123b565b6040516103f991906143d4565b60405180910390f35b34801561040e57600080fd5b506104176112f3565b005b34801561042557600080fd5b5061042e61137b565b60405161043b91906143d4565b60405180910390f35b61044c611388565b005b34801561045a57600080fd5b5061047560048036038101906104709190613792565b611445565b604051610483929190613f40565b60405180910390f35b34801561049857600080fd5b506104a16114ba565b6040516104ae9190613f25565b60405180910390f35b3480156104c357600080fd5b506104cc6114e4565b6040516104d99190614052565b60405180910390f35b3480156104ee57600080fd5b506105096004803603810190610504919061360f565b611576565b005b34801561051757600080fd5b50610532600480360381019061052d919061364b565b61158c565b005b34801561054057600080fd5b5061055b60048036038101906105569190613594565b611773565b005b34801561056957600080fd5b50610584600480360381019061057f919061364b565b6117d5565b60405161059191906143d4565b60405180910390f35b3480156105a657600080fd5b506105c160048036038101906105bc919061371a565b61188f565b6040516105ce9190614052565b60405180910390f35b3480156105e357600080fd5b506105fe60048036038101906105f9919061371a565b6119e1565b60405161060b9190614015565b60405180910390f35b34801561062057600080fd5b5061063b60048036038101906106369190613509565b611ae3565b6040516106489190614037565b60405180910390f35b34801561065d57600080fd5b50610666611b77565b60405161067391906143d4565b60405180910390f35b34801561068857600080fd5b506106a3600480360381019061069e91906134e0565b611b7c565b005b3480156106b157600080fd5b506106ba611c74565b6040516106c791906143d4565b60405180910390f35b600063cad96cca60e01b7bffffffffffffffffffffffffffffffffffffffffffffffffffffffff1916827bffffffffffffffffffffffffffffffffffffffffffffffffffffffff19161415610728576001905061078a565b632a55205a60e01b7bffffffffffffffffffffffffffffffffffffffffffffffffffffffff1916827bffffffffffffffffffffffffffffffffffffffffffffffffffffffff1916141561077e576001905061078a565b61078782611c7a565b90505b919050565b60606000805461079e90614722565b80601f01602080910402602001604051908101604052809291908181526020018280546107ca90614722565b80156108175780601f106107ec57610100808354040283529160200191610817565b820191906000526020600020905b8154815290600101906020018083116107fa57829003601f168201915b5050505050905090565b600061082c82611d5c565b61086b576040517f08c379a000000000000000000000000000000000000000000000000000000000815260040161086290614274565b60405180910390fd5b6004600083815260200190815260200160002060009054906101000a900473ffffffffffffffffffffffffffffffffffffffff169050919050565b60006108b182611189565b90508073ffffffffffffffffffffffffffffffffffffffff168373ffffffffffffffffffffffffffffffffffffffff161415610922576040517f08c379a000000000000000000000000000000000000000000000000000000000815260040161091990614314565b60405180910390fd5b8073ffffffffffffffffffffffffffffffffffffffff16610941611dc8565b73ffffffffffffffffffffffffffffffffffffffff161480610970575061096f8161096a611dc8565b611ae3565b5b6109af576040517f08c379a00000000000000000000000000000000000000000000000000000000081526004016109a6906141b4565b60405180910390fd5b6109b98383611dd0565b505050565b6109c6611dc8565b73ffffffffffffffffffffffffffffffffffffffff166109e46114ba565b73ffffffffffffffffffffffffffffffffffffffff1614610a3a576040517f08c379a0000000000000000000000000000000000000000000000000000000008152600401610a3190614294565b60405180910390fd5b6000600167ffffffffffffffff811115610a7d577f4e487b7100000000000000000000000000000000000000000000000000000000600052604160045260246000fd5b604051908082528060200260200182016040528015610ab657816020015b610aa361329c565b815260200190600190039081610a9b5790505b5090508181600081518110610af4577f4e487b7100000000000000000000000000000000000000000000000000000000600052603260045260246000fd5b6020026020010151602001906bffffffffffffffffffffffff1690816bffffffffffffffffffffffff16815250508281600081518110610b5d577f4e487b7100000000000000000000000000000000000000000000000000000000600052603260045260246000fd5b60200260200101516000019073ffffffffffffffffffffffffffffffffffffffff16908173ffffffffffffffffffffffffffffffffffffffff1681525050610ba58482611e89565b50505050565b610bbc610bb6611dc8565b826120fa565b610bfb576040517f08c379a0000000000000000000000000000000000000000000000000000000008152600401610bf290614394565b60405180910390fd5b610c068383836121d8565b505050565b600080600060086000868152602001908152602001600020805480602002602001604051908101604052809291908181526020016000905b82821015610d05578382906000526020600020016040518060400160405290816000820160009054906101000a900473ffffffffffffffffffffffffffffffffffffffff1673ffffffffffffffffffffffffffffffffffffffff1673ffffffffffffffffffffffffffffffffffffffff1681526020016000820160149054906101000a90046bffffffffffffffffffffffff166bffffffffffffffffffffffff166bffffffffffffffffffffffff168152505081526020019060010190610c43565b505050509050600081511115610dd15780600081518110610d4f577f4e487b7100000000000000000000000000000000000000000000000000000000600052603260045260246000fd5b60200260200101516000015161271082600081518110610d98577f4e487b7100000000000000000000000000000000000000000000000000000000600052603260045260246000fd5b6020026020010151602001516bffffffffffffffffffffffff1686610dbd91906145b4565b610dc79190614583565b9250925050610dda565b60008092509250505b9250929050565b60008111610e24576040517f08c379a0000000000000000000000000000000000000000000000000000000008152600401610e1b90614354565b60405180910390fd5b600a811115610e68576040517f08c379a0000000000000000000000000000000000000000000000000000000008152600401610e5f90614334565b60405180910390fd5b6000610e746009612434565b90506103e8811115610ebb576040517f08c379a0000000000000000000000000000000000000000000000000000000008152600401610eb2906142f4565b60405180910390fd5b6103e88282610eca919061452d565b1115610f0b576040517f08c379a0000000000000000000000000000000000000000000000000000000008152600401610f0290614134565b60405180910390fd5b610f27826802b5e3af16b188000061244290919063ffffffff16565b341015610f69576040517f08c379a0000000000000000000000000000000000000000000000000000000008152600401610f6090614194565b60405180910390fd5b60005b82811015610f9057610f7d84612458565b8080610f8890614785565b915050610f6c565b50505050565b610fb183838360405180602001604052806000815250611773565b505050565b610fbe611dc8565b73ffffffffffffffffffffffffffffffffffffffff16610fdc6114ba565b73ffffffffffffffffffffffffffffffffffffffff1614611032576040517f08c379a000000000000000000000000000000000000000000000000000000000815260040161102990614294565b60405180910390fd5b60008111611075576040517f08c379a000000000000000000000000000000000000000000000000000000000815260040161106c90614354565b60405180910390fd5b600a8111156110b9576040517f08c379a00000000000000000000000000000000000000000000000000000000081526004016110b090614334565b60405180910390fd5b60006110c56009612434565b90506103e881111561110c576040517f08c379a0000000000000000000000000000000000000000000000000000000008152600401611103906142f4565b60405180910390fd5b6103e8828261111b919061452d565b111561115c576040517f08c379a000000000000000000000000000000000000000000000000000000000815260040161115390614134565b60405180910390fd5b60005b828110156111835761117084612458565b808061117b90614785565b91505061115f565b50505050565b6000806002600084815260200190815260200160002060009054906101000a900473ffffffffffffffffffffffffffffffffffffffff169050600073ffffffffffffffffffffffffffffffffffffffff168173ffffffffffffffffffffffffffffffffffffffff161415611232576040517f08c379a0000000000000000000000000000000000000000000000000000000008152600401611229906141f4565b60405180910390fd5b80915050919050565b60008073ffffffffffffffffffffffffffffffffffffffff168273ffffffffffffffffffffffffffffffffffffffff1614156112ac576040517f08c379a00000000000000000000000000000000000000000000000000000000081526004016112a3906141d4565b60405180910390fd5b600360008373ffffffffffffffffffffffffffffffffffffffff1673ffffffffffffffffffffffffffffffffffffffff168152602001908152602001600020549050919050565b6112fb611dc8565b73ffffffffffffffffffffffffffffffffffffffff166113196114ba565b73ffffffffffffffffffffffffffffffffffffffff161461136f576040517f08c379a000000000000000000000000000000000000000000000000000000000815260040161136690614294565b60405180910390fd5b611379600061260c565b565b6802b5e3af16b188000081565b611390611dc8565b73ffffffffffffffffffffffffffffffffffffffff166113ae6114ba565b73ffffffffffffffffffffffffffffffffffffffff1614611404576040517f08c379a00000000000000000000000000000000000000000000000000000000081526004016113fb90614294565b60405180910390fd5b60004790506000811161141657600080fd5b611442600a60009054906101000a900473ffffffffffffffffffffffffffffffffffffffff16826126d2565b50565b6008602052816000526040600020818154811061146157600080fd5b90600052602060002001600091509150508060000160009054906101000a900473ffffffffffffffffffffffffffffffffffffffff16908060000160149054906101000a90046bffffffffffffffffffffffff16905082565b6000600760009054906101000a900473ffffffffffffffffffffffffffffffffffffffff16905090565b6060600180546114f390614722565b80601f016020809104026020016040519081016040528092919081815260200182805461151f90614722565b801561156c5780601f106115415761010080835404028352916020019161156c565b820191906000526020600020905b81548152906001019060200180831161154f57829003601f168201915b5050505050905090565b611588611581611dc8565b8383612783565b5050565b6000600c600083815260200190815260200160002060009054906101000a900473ffffffffffffffffffffffffffffffffffffffff1690503373ffffffffffffffffffffffffffffffffffffffff168173ffffffffffffffffffffffffffffffffffffffff1614611632576040517f08c379a000000000000000000000000000000000000000000000000000000000815260040161162990614114565b60405180910390fd5b600061163e84846117d5565b9050600061164b426128f0565b90506000600b60009054906101000a900473ffffffffffffffffffffffffffffffffffffffff1673ffffffffffffffffffffffffffffffffffffffff1663a28f38498787866040518463ffffffff1660e01b81526004016116ae93929190613fde565b60006040518083038186803b1580156116c657600080fd5b505afa1580156116da573d6000803e3d6000fd5b505050506040513d6000823e3d601f19601f8201168201806040525081019061170391906136d9565b905060006117398361171484612a9d565b604051602001611725929190613ea9565b604051602081830303815290604052612a9d565b905060008160405160200161174e9190613eee565b60405160208183030381529060405290506117698782612c5b565b5050505050505050565b61178461177e611dc8565b836120fa565b6117c3576040517f08c379a00000000000000000000000000000000000000000000000000000000081526004016117ba90614394565b60405180910390fd5b6117cf84848484612ccf565b50505050565b60006064600d60008481526020019081526020016000205410611813576000600d600084815260200190815260200160002054905080915050611889565b6000834342611821866128f0565b6040516020016118349493929190613e54565b6040516020818303038152906040528051906020012060001c905060006103e78261185f91906147fc565b9050806064111561188357606481611877919061452d565b90508092505050611889565b80925050505b92915050565b606061189a82611d5c565b6118d9576040517f08c379a00000000000000000000000000000000000000000000000000000000081526004016118d090614254565b60405180910390fd5b60006006600084815260200190815260200160002080546118f990614722565b80601f016020809104026020016040519081016040528092919081815260200182805461192590614722565b80156119725780601f1061194757610100808354040283529160200191611972565b820191906000526020600020905b81548152906001019060200180831161195557829003601f168201915b505050505090506000611983612d2b565b90506000815114156119995781925050506119dc565b6000825111156119ce5780826040516020016119b6929190613e30565b604051602081830303815290604052925050506119dc565b6119d784612d42565b925050505b919050565b606060086000838152602001908152602001600020805480602002602001604051908101604052809291908181526020016000905b82821015611ad8578382906000526020600020016040518060400160405290816000820160009054906101000a900473ffffffffffffffffffffffffffffffffffffffff1673ffffffffffffffffffffffffffffffffffffffff1673ffffffffffffffffffffffffffffffffffffffff1681526020016000820160149054906101000a90046bffffffffffffffffffffffff166bffffffffffffffffffffffff166bffffffffffffffffffffffff168152505081526020019060010190611a16565b505050509050919050565b6000600560008473ffffffffffffffffffffffffffffffffffffffff1673ffffffffffffffffffffffffffffffffffffffff16815260200190815260200160002060008373ffffffffffffffffffffffffffffffffffffffff1673ffffffffffffffffffffffffffffffffffffffff16815260200190815260200160002060009054906101000a900460ff16905092915050565b600a81565b611b84611dc8565b73ffffffffffffffffffffffffffffffffffffffff16611ba26114ba565b73ffffffffffffffffffffffffffffffffffffffff1614611bf8576040517f08c379a0000000000000000000000000000000000000000000000000000000008152600401611bef90614294565b60405180910390fd5b600073ffffffffffffffffffffffffffffffffffffffff168173ffffffffffffffffffffffffffffffffffffffff161415611c68576040517f08c379a0000000000000000000000000000000000000000000000000000000008152600401611c5f90614094565b60405180910390fd5b611c718161260c565b50565b6103e881565b60007f80ac58cd000000000000000000000000000000000000000000000000000000007bffffffffffffffffffffffffffffffffffffffffffffffffffffffff1916827bffffffffffffffffffffffffffffffffffffffffffffffffffffffff19161480611d4557507f5b5e139f000000000000000000000000000000000000000000000000000000007bffffffffffffffffffffffffffffffffffffffffffffffffffffffff1916827bffffffffffffffffffffffffffffffffffffffffffffffffffffffff1916145b80611d555750611d5482612de9565b5b9050919050565b60008073ffffffffffffffffffffffffffffffffffffffff166002600084815260200190815260200160002060009054906101000a900473ffffffffffffffffffffffffffffffffffffffff1673ffffffffffffffffffffffffffffffffffffffff1614159050919050565b600033905090565b816004600083815260200190815260200160002060006101000a81548173ffffffffffffffffffffffffffffffffffffffff021916908373ffffffffffffffffffffffffffffffffffffffff160217905550808273ffffffffffffffffffffffffffffffffffffffff16611e4383611189565b73ffffffffffffffffffffffffffffffffffffffff167f8c5be1e5ebec7d5bd14f71427d1e84f3dd0314c0f7b2291e5b200ac8c7c3b92560405160405180910390a45050565b60005b81518110156120eb57600073ffffffffffffffffffffffffffffffffffffffff16828281518110611ee6577f4e487b7100000000000000000000000000000000000000000000000000000000600052603260045260246000fd5b60200260200101516000015173ffffffffffffffffffffffffffffffffffffffff161415611f49576040517f08c379a0000000000000000000000000000000000000000000000000000000008152600401611f40906143b4565b60405180910390fd5b6000828281518110611f84577f4e487b7100000000000000000000000000000000000000000000000000000000600052603260045260246000fd5b6020026020010151602001516bffffffffffffffffffffffff161415611fdf576040517f08c379a0000000000000000000000000000000000000000000000000000000008152600401611fd690614174565b60405180910390fd5b6008600084815260200190815260200160002082828151811061202b577f4e487b7100000000000000000000000000000000000000000000000000000000600052603260045260246000fd5b60200260200101519080600181540180825580915050600190039060005260206000200160009091909190915060008201518160000160006101000a81548173ffffffffffffffffffffffffffffffffffffffff021916908373ffffffffffffffffffffffffffffffffffffffff16021790555060208201518160000160146101000a8154816bffffffffffffffffffffffff02191690836bffffffffffffffffffffffff160217905550505080806120e390614785565b915050611e8c565b506120f68282612e53565b5050565b600061210582611d5c565b612144576040517f08c379a000000000000000000000000000000000000000000000000000000000815260040161213b90614154565b60405180910390fd5b600061214f83611189565b90508073ffffffffffffffffffffffffffffffffffffffff168473ffffffffffffffffffffffffffffffffffffffff1614806121be57508373ffffffffffffffffffffffffffffffffffffffff166121a684610821565b73ffffffffffffffffffffffffffffffffffffffff16145b806121cf57506121ce8185611ae3565b5b91505092915050565b8273ffffffffffffffffffffffffffffffffffffffff166121f882611189565b73ffffffffffffffffffffffffffffffffffffffff161461224e576040517f08c379a0000000000000000000000000000000000000000000000000000000008152600401612245906142b4565b60405180910390fd5b600073ffffffffffffffffffffffffffffffffffffffff168273ffffffffffffffffffffffffffffffffffffffff1614156122be576040517f08c379a00000000000000000000000000000000000000000000000000000000081526004016122b5906140d4565b60405180910390fd5b6122c9838383612e90565b6122d4600082611dd0565b6001600360008573ffffffffffffffffffffffffffffffffffffffff1673ffffffffffffffffffffffffffffffffffffffff1681526020019081526020016000206000828254612324919061460e565b925050819055506001600360008473ffffffffffffffffffffffffffffffffffffffff1673ffffffffffffffffffffffffffffffffffffffff168152602001908152602001600020600082825461237b919061452d565b92505081905550816002600083815260200190815260200160002060006101000a81548173ffffffffffffffffffffffffffffffffffffffff021916908373ffffffffffffffffffffffffffffffffffffffff160217905550808273ffffffffffffffffffffffffffffffffffffffff168473ffffffffffffffffffffffffffffffffffffffff167fddf252ad1be2c89b69c2b068fc378daa952ba7f163c4a11628f55a4df523b3ef60405160405180910390a4505050565b600081600001549050919050565b6000818361245091906145b4565b905092915050565b6124626009612e95565b600061246e6009612434565b9050600061247c83836117d5565b90506000612489426128f0565b90506000600b60009054906101000a900473ffffffffffffffffffffffffffffffffffffffff1673ffffffffffffffffffffffffffffffffffffffff1663a28f38498686866040518463ffffffff1660e01b81526004016124ec93929190613fde565b60006040518083038186803b15801561250457600080fd5b505afa158015612518573d6000803e3d6000fd5b505050506040513d6000823e3d601f19601f8201168201806040525081019061254191906136d9565b905060006125778361255284612a9d565b604051602001612563929190613ea9565b604051602081830303815290604052612a9d565b905060008160405160200161258c9190613eee565b60405160208183030381529060405290506125a78787612eab565b6125b18682612c5b565b86600c600088815260200190815260200160002060006101000a81548173ffffffffffffffffffffffffffffffffffffffff021916908373ffffffffffffffffffffffffffffffffffffffff16021790555050505050505050565b6000600760009054906101000a900473ffffffffffffffffffffffffffffffffffffffff16905081600760006101000a81548173ffffffffffffffffffffffffffffffffffffffff021916908373ffffffffffffffffffffffffffffffffffffffff1602179055508173ffffffffffffffffffffffffffffffffffffffff168173ffffffffffffffffffffffffffffffffffffffff167f8be0079c531659141344cd1fd0a4f28419497f9722a3daafe3b4186f6b6457e060405160405180910390a35050565b60008273ffffffffffffffffffffffffffffffffffffffff16826040516126f890613f10565b60006040518083038185875af1925050503d8060008114612735576040519150601f19603f3d011682016040523d82523d6000602084013e61273a565b606091505b505090508061277e576040517f08c379a000000000000000000000000000000000000000000000000000000000815260040161277590614374565b60405180910390fd5b505050565b8173ffffffffffffffffffffffffffffffffffffffff168373ffffffffffffffffffffffffffffffffffffffff1614156127f2576040517f08c379a00000000000000000000000000000000000000000000000000000000081526004016127e9906140f4565b60405180910390fd5b80600560008573ffffffffffffffffffffffffffffffffffffffff1673ffffffffffffffffffffffffffffffffffffffff16815260200190815260200160002060008473ffffffffffffffffffffffffffffffffffffffff1673ffffffffffffffffffffffffffffffffffffffff16815260200190815260200160002060006101000a81548160ff0219169083151502179055508173ffffffffffffffffffffffffffffffffffffffff168373ffffffffffffffffffffffffffffffffffffffff167f17307eab39ab6107e8899845ad3d59bd9653f200f220920489ca2b5937696c31836040516128e39190614037565b60405180910390a3505050565b60606000821415612938576040518060400160405280600181526020017f30000000000000000000000000000000000000000000000000000000000000008152509050612a98565b600082905060005b6000821461296a57808061295390614785565b915050600a826129639190614583565b9150612940565b60008167ffffffffffffffff8111156129ac577f4e487b7100000000000000000000000000000000000000000000000000000000600052604160045260246000fd5b6040519080825280601f01601f1916602001820160405280156129de5781602001600182028036833780820191505090505b5090505b60008514612a91576001826129f7919061460e565b9150600a85612a0691906147fc565b6030612a12919061452d565b60f81b818381518110612a4e577f4e487b7100000000000000000000000000000000000000000000000000000000600052603260045260246000fd5b60200101907effffffffffffffffffffffffffffffffffffffffffffffffffffffffffffff1916908160001a905350600a85612a8a9190614583565b94506129e2565b8093505050505b919050565b60606000825190506000811415612ac65760405180602001604052806000815250915050612c56565b60006003600283612ad7919061452d565b612ae19190614583565b6004612aed91906145b4565b90506000602082612afe919061452d565b67ffffffffffffffff811115612b3d577f4e487b7100000000000000000000000000000000000000000000000000000000600052604160045260246000fd5b6040519080825280601f01601f191660200182016040528015612b6f5781602001600182028036833780820191505090505b50905060006040518060600160405280604081526020016151ad604091399050600181016020830160005b86811015612c135760038101905062ffffff818a015116603f8160121c168401518060081b905060ff603f83600c1c1686015116810190508060081b905060ff603f8360061c1686015116810190508060081b905060ff603f831686015116810190508060e01b90508084526004840193505050612b9a565b506003860660018114612c2d5760028114612c3d57612c48565b613d3d60f01b6002830352612c48565b603d60f81b60018303525b508484525050819450505050505b919050565b612c6482611d5c565b612ca3576040517f08c379a0000000000000000000000000000000000000000000000000000000008152600401612c9a90614214565b60405180910390fd5b80600660008481526020019081526020016000209080519060200190612cca9291906132da565b505050565b612cda8484846121d8565b612ce684848484612ec9565b612d25576040517f08c379a0000000000000000000000000000000000000000000000000000000008152600401612d1c90614074565b60405180910390fd5b50505050565b606060405180602001604052806000815250905090565b6060612d4d82611d5c565b612d8c576040517f08c379a0000000000000000000000000000000000000000000000000000000008152600401612d83906142d4565b60405180910390fd5b6000612d96612d2b565b90506000815111612db65760405180602001604052806000815250612de1565b80612dc0846128f0565b604051602001612dd1929190613e30565b6040516020818303038152906040525b915050919050565b60007f01ffc9a7000000000000000000000000000000000000000000000000000000007bffffffffffffffffffffffffffffffffffffffffffffffffffffffff1916827bffffffffffffffffffffffffffffffffffffffffffffffffffffffff1916149050919050565b7f3fa96d7b6bcbfe71ef171666d84db3cf52fa2d1c8afdb1cc8e486177f208b7df8282604051612e849291906143ef565b60405180910390a15050565b505050565b6001816000016000828254019250508190555050565b612ec5828260405180602001604052806000815250613060565b5050565b6000612eea8473ffffffffffffffffffffffffffffffffffffffff166130bb565b15613053578373ffffffffffffffffffffffffffffffffffffffff1663150b7a02612f13611dc8565b8786866040518563ffffffff1660e01b8152600401612f359493929190613f69565b602060405180830381600087803b158015612f4f57600080fd5b505af1925050508015612f8057506040513d601f19601f82011682018060405250810190612f7d91906136b0565b60015b613003573d8060008114612fb0576040519150601f19603f3d011682016040523d82523d6000602084013e612fb5565b606091505b50600081511415612ffb576040517f08c379a0000000000000000000000000000000000000000000000000000000008152600401612ff290614074565b60405180910390fd5b805181602001fd5b63150b7a0260e01b7bffffffffffffffffffffffffffffffffffffffffffffffffffffffff1916817bffffffffffffffffffffffffffffffffffffffffffffffffffffffff191614915050613058565b600190505b949350505050565b61306a83836130ce565b6130776000848484612ec9565b6130b6576040517f08c379a00000000000000000000000000000000000000000000000000000000081526004016130ad90614074565b60405180910390fd5b505050565b600080823b905060008111915050919050565b600073ffffffffffffffffffffffffffffffffffffffff168273ffffffffffffffffffffffffffffffffffffffff16141561313e576040517f08c379a000000000000000000000000000000000000000000000000000000000815260040161313590614234565b60405180910390fd5b61314781611d5c565b15613187576040517f08c379a000000000000000000000000000000000000000000000000000000000815260040161317e906140b4565b60405180910390fd5b61319360008383612e90565b6001600360008473ffffffffffffffffffffffffffffffffffffffff1673ffffffffffffffffffffffffffffffffffffffff16815260200190815260200160002060008282546131e3919061452d565b92505081905550816002600083815260200190815260200160002060006101000a81548173ffffffffffffffffffffffffffffffffffffffff021916908373ffffffffffffffffffffffffffffffffffffffff160217905550808273ffffffffffffffffffffffffffffffffffffffff16600073ffffffffffffffffffffffffffffffffffffffff167fddf252ad1be2c89b69c2b068fc378daa952ba7f163c4a11628f55a4df523b3ef60405160405180910390a45050565b6040518060400160405280600073ffffffffffffffffffffffffffffffffffffffff16815260200160006bffffffffffffffffffffffff1681525090565b8280546132e690614722565b90600052602060002090601f016020900481019282613308576000855561334f565b82601f1061332157805160ff191683800117855561334f565b8280016001018555821561334f579182015b8281111561334e578251825591602001919060010190613333565b5b50905061335c9190613360565b5090565b5b80821115613379576000816000905550600101613361565b5090565b600061339061338b84614444565b61441f565b9050828152602081018484840111156133a857600080fd5b6133b38482856146e0565b509392505050565b60006133ce6133c984614475565b61441f565b9050828152602081018484840111156133e657600080fd5b6133f18482856146ef565b509392505050565b60008135905061340881615122565b92915050565b60008135905061341d81615139565b92915050565b60008135905061343281615150565b92915050565b60008135905061344781615167565b92915050565b60008151905061345c81615167565b92915050565b600082601f83011261347357600080fd5b813561348384826020860161337d565b91505092915050565b600082601f83011261349d57600080fd5b81516134ad8482602086016133bb565b91505092915050565b6000813590506134c58161517e565b92915050565b6000813590506134da81615195565b92915050565b6000602082840312156134f257600080fd5b6000613500848285016133f9565b91505092915050565b6000806040838503121561351c57600080fd5b600061352a858286016133f9565b925050602061353b858286016133f9565b9150509250929050565b60008060006060848603121561355a57600080fd5b6000613568868287016133f9565b9350506020613579868287016133f9565b925050604061358a868287016134b6565b9150509250925092565b600080600080608085870312156135aa57600080fd5b60006135b8878288016133f9565b94505060206135c9878288016133f9565b93505060406135da878288016134b6565b925050606085013567ffffffffffffffff8111156135f757600080fd5b61360387828801613462565b91505092959194509250565b6000806040838503121561362257600080fd5b6000613630858286016133f9565b925050602061364185828601613423565b9150509250929050565b6000806040838503121561365e57600080fd5b600061366c858286016133f9565b925050602061367d858286016134b6565b9150509250929050565b60006020828403121561369957600080fd5b60006136a784828501613438565b91505092915050565b6000602082840312156136c257600080fd5b60006136d08482850161344d565b91505092915050565b6000602082840312156136eb57600080fd5b600082015167ffffffffffffffff81111561370557600080fd5b6137118482850161348c565b91505092915050565b60006020828403121561372c57600080fd5b600061373a848285016134b6565b91505092915050565b60008060006060848603121561375857600080fd5b6000613766868287016134b6565b93505060206137778682870161340e565b9250506040613788868287016134cb565b9150509250925092565b600080604083850312156137a557600080fd5b60006137b3858286016134b6565b92505060206137c4858286016134b6565b9150509250929050565b60006137da8383613dbd565b60408301905092915050565b6137ef81614654565b82525050565b6137fe81614654565b82525050565b61380d81614642565b82525050565b61382461381f82614642565b6147ce565b82525050565b6000613835826144b6565b61383f81856144e4565b935061384a836144a6565b8060005b8381101561387b57815161386288826137ce565b975061386d836144d7565b92505060018101905061384e565b5085935050505092915050565b61389181614666565b82525050565b60006138a2826144c1565b6138ac81856144f5565b93506138bc8185602086016146ef565b6138c5816148e9565b840191505092915050565b60006138db826144cc565b6138e58185614511565b93506138f58185602086016146ef565b6138fe816148e9565b840191505092915050565b6000613914826144cc565b61391e8185614522565b935061392e8185602086016146ef565b80840191505092915050565b6000613947600c83614522565b915061395282614907565b600c82019050919050565b600061396a603283614511565b915061397582614930565b604082019050919050565b600061398d602683614511565b91506139988261497f565b604082019050919050565b60006139b0601c83614511565b91506139bb826149ce565b602082019050919050565b60006139d3602483614511565b91506139de826149f7565b604082019050919050565b60006139f6601983614511565b9150613a0182614a46565b602082019050919050565b6000613a19601583614511565b9150613a2482614a6f565b602082019050919050565b6000613a3c600983614511565b9150613a4782614a98565b602082019050919050565b6000613a5f602c83614511565b9150613a6a82614ac1565b604082019050919050565b6000613a82602083614511565b9150613a8d82614b10565b602082019050919050565b6000613aa5601283614511565b9150613ab082614b39565b602082019050919050565b6000613ac8602983614522565b9150613ad382614b62565b602982019050919050565b6000613aeb603883614511565b9150613af682614bb1565b604082019050919050565b6000613b0e602a83614511565b9150613b1982614c00565b604082019050919050565b6000613b31602983614511565b9150613b3c82614c4f565b604082019050919050565b6000613b54602e83614511565b9150613b5f82614c9e565b604082019050919050565b6000613b77600283614522565b9150613b8282614ced565b600282019050919050565b6000613b9a602083614511565b9150613ba582614d16565b602082019050919050565b6000613bbd603183614511565b9150613bc882614d3f565b604082019050919050565b6000613be0602c83614511565b9150613beb82614d8e565b604082019050919050565b6000613c03602083614511565b9150613c0e82614ddd565b602082019050919050565b6000613c26602983614511565b9150613c3182614e06565b604082019050919050565b6000613c49609183614522565b9150613c5482614e55565b609182019050919050565b6000613c6c602f83614511565b9150613c7782614f16565b604082019050919050565b6000613c8f600a83614511565b9150613c9a82614f65565b602082019050919050565b6000613cb2602183614511565b9150613cbd82614f8e565b604082019050919050565b6000613cd5601183614511565b9150613ce082614fdd565b602082019050919050565b6000613cf8602683614511565b9150613d0382615006565b604082019050919050565b6000613d1b601d83614522565b9150613d2682615055565b601d82019050919050565b6000613d3e600083614506565b9150613d498261507e565b600082019050919050565b6000613d61601083614511565b9150613d6c82615081565b602082019050919050565b6000613d84603183614511565b9150613d8f826150aa565b604082019050919050565b6000613da7601b83614511565b9150613db2826150f9565b602082019050919050565b604082016000820151613dd360008501826137e6565b506020820151613de66020850182613e12565b50505050565b613df5816146be565b82525050565b613e0c613e07826146be565b6147f2565b82525050565b613e1b816146c8565b82525050565b613e2a816146c8565b82525050565b6000613e3c8285613909565b9150613e488284613909565b91508190509392505050565b6000613e5f8261393a565b9150613e6b8287613813565b601482019150613e7b8286613dfb565b602082019150613e8b8285613dfb565b602082019150613e9b8284613909565b915081905095945050505050565b6000613eb482613c3c565b9150613ec08285613909565b9150613ecb82613abb565b9150613ed78284613909565b9150613ee282613b6a565b91508190509392505050565b6000613ef982613d0e565b9150613f058284613909565b915081905092915050565b6000613f1b82613d31565b9150819050919050565b6000602082019050613f3a6000830184613804565b92915050565b6000604082019050613f5560008301856137f5565b613f626020830184613e21565b9392505050565b6000608082019050613f7e6000830187613804565b613f8b6020830186613804565b613f986040830185613dec565b8181036060830152613faa8184613897565b905095945050505050565b6000604082019050613fca6000830185613804565b613fd76020830184613dec565b9392505050565b6000606082019050613ff36000830186613804565b6140006020830185613dec565b61400d6040830184613dec565b949350505050565b6000602082019050818103600083015261402f818461382a565b905092915050565b600060208201905061404c6000830184613888565b92915050565b6000602082019050818103600083015261406c81846138d0565b905092915050565b6000602082019050818103600083015261408d8161395d565b9050919050565b600060208201905081810360008301526140ad81613980565b9050919050565b600060208201905081810360008301526140cd816139a3565b9050919050565b600060208201905081810360008301526140ed816139c6565b9050919050565b6000602082019050818103600083015261410d816139e9565b9050919050565b6000602082019050818103600083015261412d81613a0c565b9050919050565b6000602082019050818103600083015261414d81613a2f565b9050919050565b6000602082019050818103600083015261416d81613a52565b9050919050565b6000602082019050818103600083015261418d81613a75565b9050919050565b600060208201905081810360008301526141ad81613a98565b9050919050565b600060208201905081810360008301526141cd81613ade565b9050919050565b600060208201905081810360008301526141ed81613b01565b9050919050565b6000602082019050818103600083015261420d81613b24565b9050919050565b6000602082019050818103600083015261422d81613b47565b9050919050565b6000602082019050818103600083015261424d81613b8d565b9050919050565b6000602082019050818103600083015261426d81613bb0565b9050919050565b6000602082019050818103600083015261428d81613bd3565b9050919050565b600060208201905081810360008301526142ad81613bf6565b9050919050565b600060208201905081810360008301526142cd81613c19565b9050919050565b600060208201905081810360008301526142ed81613c5f565b9050919050565b6000602082019050818103600083015261430d81613c82565b9050919050565b6000602082019050818103600083015261432d81613ca5565b9050919050565b6000602082019050818103600083015261434d81613cc8565b9050919050565b6000602082019050818103600083015261436d81613ceb565b9050919050565b6000602082019050818103600083015261438d81613d54565b9050919050565b600060208201905081810360008301526143ad81613d77565b9050919050565b600060208201905081810360008301526143cd81613d9a565b9050919050565b60006020820190506143e96000830184613dec565b92915050565b60006040820190506144046000830185613dec565b8181036020830152614416818461382a565b90509392505050565b600061442961443a565b90506144358282614754565b919050565b6000604051905090565b600067ffffffffffffffff82111561445f5761445e6148ba565b5b614468826148e9565b9050602081019050919050565b600067ffffffffffffffff8211156144905761448f6148ba565b5b614499826148e9565b9050602081019050919050565b6000819050602082019050919050565b600081519050919050565b600081519050919050565b600081519050919050565b6000602082019050919050565b600082825260208201905092915050565b600082825260208201905092915050565b600081905092915050565b600082825260208201905092915050565b600081905092915050565b6000614538826146be565b9150614543836146be565b9250827fffffffffffffffffffffffffffffffffffffffffffffffffffffffffffffffff038211156145785761457761482d565b5b828201905092915050565b600061458e826146be565b9150614599836146be565b9250826145a9576145a861485c565b5b828204905092915050565b60006145bf826146be565b91506145ca836146be565b9250817fffffffffffffffffffffffffffffffffffffffffffffffffffffffffffffffff04831182151516156146035761460261482d565b5b828202905092915050565b6000614619826146be565b9150614624836146be565b9250828210156146375761463661482d565b5b828203905092915050565b600061464d8261469e565b9050919050565b600061465f8261469e565b9050919050565b60008115159050919050565b60007fffffffff0000000000000000000000000000000000000000000000000000000082169050919050565b600073ffffffffffffffffffffffffffffffffffffffff82169050919050565b6000819050919050565b60006bffffffffffffffffffffffff82169050919050565b82818337600083830152505050565b60005b8381101561470d5780820151818401526020810190506146f2565b8381111561471c576000848401525b50505050565b6000600282049050600182168061473a57607f821691505b6020821081141561474e5761474d61488b565b5b50919050565b61475d826148e9565b810181811067ffffffffffffffff8211171561477c5761477b6148ba565b5b80604052505050565b6000614790826146be565b91507fffffffffffffffffffffffffffffffffffffffffffffffffffffffffffffffff8214156147c3576147c261482d565b5b600182019050919050565b60006147d9826147e0565b9050919050565b60006147eb826148fa565b9050919050565b6000819050919050565b6000614807826146be565b9150614812836146be565b9250826148225761482161485c565b5b828206905092915050565b7f4e487b7100000000000000000000000000000000000000000000000000000000600052601160045260246000fd5b7f4e487b7100000000000000000000000000000000000000000000000000000000600052601260045260246000fd5b7f4e487b7100000000000000000000000000000000000000000000000000000000600052602260045260246000fd5b7f4e487b7100000000000000000000000000000000000000000000000000000000600052604160045260246000fd5b6000601f19601f8301169050919050565b60008160601b9050919050565b7f4e414e59555f415448454e410000000000000000000000000000000000000000600082015250565b7f4552433732313a207472616e7366657220746f206e6f6e20455243373231526560008201527f63656976657220696d706c656d656e7465720000000000000000000000000000602082015250565b7f4f776e61626c653a206e6577206f776e657220697320746865207a65726f206160008201527f6464726573730000000000000000000000000000000000000000000000000000602082015250565b7f4552433732313a20746f6b656e20616c7265616479206d696e74656400000000600082015250565b7f4552433732313a207472616e7366657220746f20746865207a65726f2061646460008201527f7265737300000000000000000000000000000000000000000000000000000000602082015250565b7f4552433732313a20617070726f766520746f2063616c6c657200000000000000600082015250565b7f596f7520617265206e6f7420746865206f776e65720000000000000000000000600082015250565b7f4d6178206c696d69740000000000000000000000000000000000000000000000600082015250565b7f4552433732313a206f70657261746f7220717565727920666f72206e6f6e657860008201527f697374656e7420746f6b656e0000000000000000000000000000000000000000602082015250565b7f526f79616c74792076616c75652073686f756c6420626520706f736974697665600082015250565b7f496e73756666696369656e742066756e64730000000000000000000000000000600082015250565b7f227d5d2c2022696d616765223a2022646174613a696d6167652f7376672b786d60008201527f6c3b6261736536342c0000000000000000000000000000000000000000000000602082015250565b7f4552433732313a20617070726f76652063616c6c6572206973206e6f74206f7760008201527f6e6572206e6f7220617070726f76656420666f7220616c6c0000000000000000602082015250565b7f4552433732313a2062616c616e636520717565727920666f7220746865207a6560008201527f726f206164647265737300000000000000000000000000000000000000000000602082015250565b7f4552433732313a206f776e657220717565727920666f72206e6f6e657869737460008201527f656e7420746f6b656e0000000000000000000000000000000000000000000000602082015250565b7f45524337323155524953746f726167653a2055524920736574206f66206e6f6e60008201527f6578697374656e7420746f6b656e000000000000000000000000000000000000602082015250565b7f227d000000000000000000000000000000000000000000000000000000000000600082015250565b7f4552433732313a206d696e7420746f20746865207a65726f2061646472657373600082015250565b7f45524337323155524953746f726167653a2055524920717565727920666f722060008201527f6e6f6e6578697374656e7420746f6b656e000000000000000000000000000000602082015250565b7f4552433732313a20617070726f76656420717565727920666f72206e6f6e657860008201527f697374656e7420746f6b656e0000000000000000000000000000000000000000602082015250565b7f4f776e61626c653a2063616c6c6572206973206e6f7420746865206f776e6572600082015250565b7f4552433732313a207472616e73666572206f6620746f6b656e2074686174206960008201527f73206e6f74206f776e0000000000000000000000000000000000000000000000602082015250565b7f7b226e616d65223a2022466f7274756e6520436f6f6b79222c2022646573637260008201527f697074696f6e223a202243727970746f20466f7274756e6520436f6f6b79222c60208201527f202261747472696275746573223a205b7b22646973706c61795f74797065223a60408201527f202264617465222c202274726169745f74797065223a2022466f7274756e652060608201527f44617465222c202276616c7565223a2022000000000000000000000000000000608082015250565b7f4552433732314d657461646174613a2055524920717565727920666f72206e6f60008201527f6e6578697374656e7420746f6b656e0000000000000000000000000000000000602082015250565b7f53616c6520656e64656400000000000000000000000000000000000000000000600082015250565b7f4552433732313a20617070726f76616c20746f2063757272656e74206f776e6560008201527f7200000000000000000000000000000000000000000000000000000000000000602082015250565b7f45786365656473206d6178206974656d73000000000000000000000000000000600082015250565b7f4d696e7420636f756e742073686f756c6420626520677265617465722074686160008201527f6e207a65726f0000000000000000000000000000000000000000000000000000602082015250565b7f646174613a6170706c69636174696f6e2f6a736f6e3b6261736536342c000000600082015250565b50565b7f5472616e73666572206661696c65642e00000000000000000000000000000000600082015250565b7f4552433732313a207472616e736665722063616c6c6572206973206e6f74206f60008201527f776e6572206e6f7220617070726f766564000000000000000000000000000000602082015250565b7f526563697069656e742073686f756c642062652070726573656e740000000000600082015250565b61512b81614642565b811461513657600080fd5b50565b61514281614654565b811461514d57600080fd5b50565b61515981614666565b811461516457600080fd5b50565b61517081614672565b811461517b57600080fd5b50565b615187816146be565b811461519257600080fd5b50565b61519e816146c8565b81146151a957600080fd5b5056fe4142434445464748494a4b4c4d4e4f505152535455565758595a6162636465666768696a6b6c6d6e6f707172737475767778797a303132333435363738392b2fa26469706673582212205437d3facd27c32f48795f051b49fec72157e62539bc54e68b7ea508df1d06fa64736f6c63430008020033",
  "linkReferences": {},
  "deployedLinkReferences": {}
}